:1000000038C300006FC300006DC300006BC3000065
:1000100069C3000067C3000065C3000063C300003C
:1000200061C300005FC300000C940C240C945C2599
:100030000C94C12357C3000055C3000053C30000F4
:1000400051C300004FC300004DC300004BC300006C
:1000500049C300000C94E82345C3000043C30000DB
:1000600041C300003FC300003DC300003BC300008C
:1000700039C3000037C3000035C3000033C300009C
:100080000C9418222FC300002DC300002BC30000C6
:1000900029C3000027C3000025C3000023C30000BC
:1000A00021C300001FC300001DC3000007634236C8
:1000B000B79BD8A71A39685618AEBAAB558C1D3CF9
:1000C000B7CC5763BD6DEDFD753EF6177231BF00BD
:1000D0000000803F08000000BE922449123EABAAF7
:1000E000AA2ABECDCCCC4C3E00000080BEABAAAA52
:1000F000AA3E00000000BF000000803F000000009A
:1001000000084178D3BB4387D1133D190E3CC3BDD2
:100110004282AD2B3E68EC8276BED98FE1A93E4C7F
:1001200080EFFFBE01C4FF7F3F00000000000631EA
:10013000FF0974A1010975150026FF0095207508B7
:100140008102C005010980A101850319012AB700B8
:10015000150126B700950175108100C0050C090135
:10016000A101850419012AA002150126A00295010A
:1001700075108100C005010906A101850605071952
:10018000E029E71500250195087501810205071989
:100190000029EF1500250195F07501810205081968
:1001A000012905950575019102950175039101C01D
:1001B00005010906A101050719E029E71500250138
:1001C00095087501810295017508810105071900DF
:1001D00029FF150026FF00950675088100050819FE
:1001E00001290515002501950575019102950175F7
:1001F000039101C009025400030100A03209040068
:10020000000103010100092111010001224400073E
:100210000581030800010904010001030000000931
:100220002111010001226D00070582032000010950
:100230000402000103000000092111010001221540
:1002400000070583032000011201000200000008DE
:10025000A80301AE0400010200010E0350006C006F
:1002600061006E0063006B0000000A034F004C0049
:100270004B0042000000040309045B435D005B4443
:100280005D005B535D005B575D005B525D00646524
:100290006C5F6B65795F6269743A2063616E277485
:1002A0002064656C3A20253032580A006164645F2E
:1002B0006B65795F6269743A2063616E27742061AF
:1002C00064643A20253032580A00617564696F5FB2
:1002D000696E697420617564696F5F636F6E6669CA
:1002E000672E76616C6964203D20302E205772693C
:1002F00074652064656661756C742076616C7565E3
:100300007320746F20454550524F4D2E0A0073756F
:100310007370656E64696E67206B6579626F617278
:10032000640D0A000A002530313662003A200025AB
:10033000303258000A722F63203031323334353670
:100340003738394142434445460A006C65645F745E
:1003500061736B3A20253032580A00290014001AC4
:10036000000800150017001C0018000C00120013F4
:10037000002A002B0004001600070009000A000BE9
:10038000000D000E000F0034002800E1001D001BCE
:100390000006001900050011001000370038005257
:1003A00000E500E000E300E200330023522C002CC3
:1003B0000024523600500051004F002B0014001A48
:1003C00000090013000A000D000F0018001C003384
:1003D000002A002900040015001600170007000B72
:1003E00000110008000C0012003400E1001D001B89
:1003F000000600190005000E001000360037003816
:10040000002800417EE000E200E30023522C002C93
:100410000024525000510052004F002B003400368F
:1004200000370013001C0009000A00060015000F29
:10043000002A00290004001200080018000C000720
:10044000000B001700110016003800E10033001403
:10045000000D000E001B00050010001A0019001D01
:10046000002800417EE000E200E30023522C002C33
:100470000024525000510052004F0035021E021F4E
:100480000220022102220223022402250226022740
:10049000022A004C003A003B003C003D003E003F79
:1004A000002D022E022F02300231020100400041D5
:1004B000004200430044004500320264024A004DFD
:1004C0000001000100010001000100010001000124
:1004D000000100AB00AA00A900AE0035001E001FFD
:1004E00000200021002200230024002500260027F0
:1004F000002A004C003A003B003C003D003E003F1B
:10050000002D002E002F003000310001004000417E
:10051000004200430044004500320064004B004E9E
:1005200000010001000100010001000100010001C3
:10053000000100AB00AA00A900AE001E001E001EB4
:10054000001E001E001E001E001E001E001E001EBB
:10055000001E00000014001A000800150017001CFF
:100560000018000C00120013002F000000040016F9
:1005700000070009000A000B000D000E000F0033F9
:10058000003400427E000000000600190000000058
:1005900000110010000000000000000100007C02BB
:1005A0007C20782178237824782578267827782865
:1005B000784C0001000100937480748174157014EC
:1005C00070E052E152E252407E01000100957494C5
:1005D0007490749174007101718B748C748D748E2D
:1005E000748F74010001000100010001000100018D
:1005F00000010001000100010001000A0025303265
:100600005820006E6B726F5F7265706F72743A2063
:1006100025303258207C20000A0025303258200036
:100620006B6579626F6172645F7265706F72743A44
:100630002025303258207C20004F6E6573686F741F
:100640003A206163746976653A2025640A0044455E
:100650004255473A2064697361626C65642E0A00F2
:1006600044454255473A20656E61626C65642E0AC6
:10067000000011241FBECFEFDAE0DEBFCDBF04B60D
:1006800003FE19C080910B0890910C08A0910D08F1
:10069000B0910E088730904BA740B04B61F4109298
:1006A0000B0810920C0810920D0810920E08E0E052
:1006B000F8E3099500C028E0A2E9B6E001C01D9268
:1006C000AB30B207E1F716E0A0E0B1E0EEE5F6E509
:1006D00002C005900D92A239B107D9F70E949A1F66
:1006E0000C94F12A8DCCFF93EF93E0919206F09158
:1006F0009306309709F00995EF91FF910895FC0159
:100700008591803011F0EFDFFBCF0895FF27E0E205
:1007100030E247FF0CC0419597FF09C0EDE26095BC
:10072000709580959095611D711D811D911D27FF0C
:1007300002C0219530E350E2AA27660F771F881F79
:10074000991FAA1FA41710F0A41B63955A95A9F727
:10075000AA3008F0A95FA05DAF93F395611571050C
:100760008105910541F7ED3211F4EF93F395F217FE
:1007700018F43F93F395FBCF8F91B5DFFA95E1F72E
:100780000895E991F9918591803021F0853219F031
:10079000AADFF9CF089520E0E89455915532C1F3CE
:1007A000503311F4689455915A3348F4505390F3F0
:1007B000220F022E220F220F200D250FF4CF0EF450
:1007C000219589919991533619F3533729F153356E
:1007D00059F1BC0188279927E8945C3621F4899166
:1007E000999168945591543639F446EF7EF077FF2D
:1007F0000DC08FEF9FEF0AC055374AE039F05835EA
:1008000040E121F0523642E009F00895FF93EF9362
:100810007DDFEF91FF91B7CFFF93EF93FC018191C3
:100820008030B9F360DFFBCFFF93EF9368DFF1CF48
:10083000DF93CF93CDB7DEB72596A3DFCF91DF91BE
:1008400008958295982F990F990F9C7C869586958F
:100850008373982B892F880F8A7A96959575892BA3
:1008600008958093C2079093C3070895282F287195
:1008700030E02831310531F480648093C4079093CF
:10088000C50708958F7BF9CF21E030E002C0220F29
:10089000331F8A95E2F78091C4079091C507822B98
:1008A000932BE4CF21E030E002C0220F331F8A9562
:1008B000E2F7209530958091C4079091C507822377
:1008C0009323D4CF943090F58C3080F5E82FF0E06E
:1008D0008CE0989FE00DF11D112451E0E1FD54E002
:1008E000E0FD550FE2FD529583E0F695E7958A9578
:1008F000E1F7EE0FFF1FEE0FFF1FE757F84F20E065
:1009000030E070E04191DF01CB01022E02C09695EC
:1009100087950A94E2F78695880B84278523842798
:100920008E932F5F3F4F2430310561F70895292FB3
:10093000943070F58C3060F590E03CE0239F800DA2
:10094000911D1124682F677023E0969587952A954D
:10095000E1F7FC01EE0FFF1FEE0FFF1FE757F84F07
:1009600040E050E080E0219130E0062E02C0369554
:1009700027950A94E2F72170042E01C0220F0A94F1
:10098000EAF7822B4F5F5F4F4430510561F70895BE
:1009900080E00895E091CB079091CA07E91302C067
:1009A00080E008959F0157E0E59FF0011124E45392
:1009B000F84F5181561306C05081581303C055811A
:1009C000541305C02F5F3F4FF901E770E7CF81E077
:1009D00008958091CB072091CA07281301C008957C
:1009E00001968770FACF9091C607809589238093EE
:1009F000C607282F277061F4891751F09091C80716
:100A000092FF06C08695869586954CDF1092C607A4
:100A100008958091BF079091C907892B9091C007D5
:100A20009115C9F0892B90911A02913021F490917F
:100A3000C70797FD11C096E026E936E040E09150E7
:100A4000F90150812F5F3F4F51114F5F9111F7CF47
:100A500041111092C00708959EE12EE936E0EECFD5
:100A60008095982F8091BF0789238093BF070895B1
:100A7000972F7430C8F46C30B8F48730C0F470E04D
:100A80002CE0929F600D711D112490E3899F600DF1
:100A9000711D1124FB01EE0FFF1FE55AFC4F8591DC
:100AA0009491282F822F089520E090E0FBCF21E041
:100AB000FCCF803E9105D1F1C8F48133910509F452
:100AC00081C048F48932910509F471C08A329105D8
:100AD00009F47FC0089589339105E1F082389105CA
:100AE000C9F08533910509F45DC00895843E9105F0
:100AF000D1F148F4823E910531F1833E910541F1F7
:100B000081EE90E00895863E9105C1F1873E910502
:100B1000F1F108952091C707237009F064C0209176
:100B2000C80723FF14C089E290E008952091C70709
:100B300020FD45C03091C80730FF09C024FD24C006
:100B400083EE90E008952091C70722FDF7CF089526
:100B50002091C70722FD44C03091C80730FD43C033
:100B600024FFF5CF11C02091C80721FFF0CF80915D
:100B7000C70784FD09C087EE90E008952091C7075C
:100B800023FFE5CF24FFF7CF80E090E00895209188
:100B9000C70723FD2BC03091C80731FFE1CF84EE9A
:100BA00090E008952091C70725FFD1CFBCCF2091B9
:100BB000C70725FD1EC02091C80723FFC8CF89E3C2
:100BC00090E008952091C70726FFC1CF8AE290E008
:100BD00008952091C70726FFBACF81E390E00895DA
:100BE00082EE90E0089580EE90E0089586EE90E029
:100BF000089585E390E008959091C70792FF10C093
:100C000041E0282F2471243009F040E031E0282F02
:100C10002871283009F030E0431711F02CE08227CA
:100C200093FF10C041E0282F2471243109F040E0E7
:100C300031E0282F2871283109F030E0431711F0F6
:100C40002CE082273091C80730FF10C051E0282FD8
:100C50002171213009F050E041E0282F287128301F
:100C600009F040E0541711F029E0822731FF10C04D
:100C700041E0282F2171213109F040E031E0282F97
:100C80002871283109F030E0431711F029E082275C
:100C900094FD877E08950F931F93CF93DF9309DF11
:100CA000EC01D23508F04DC0D03508F0C3C0C03ECD
:100CB000D10530F5CD3CD10508F09AC0C83AD10530
:100CC00078F4C53AD10508F090C0C130D10599F14A
:100CD000CE010497813A910570F1C0E0D0E02BC0BD
:100CE000CE01885A91094B97C0F7C85AD0E0CC0F73
:100CF000DD1FCB5DD94F0990D881C02DD4641BC0B6
:100D0000D03490F4D03208F0A8C0C83ED10598F095
:100D1000CE0191509F3108F78D2F6EDF082F8C2F59
:100D200090E0C7DE902B54C08C2F90E0C2DEDF70C5
:100D3000C82FD92BD06ACE01DF91CF911F910F918F
:100D40000895C03882E5D807B8F5C03682E5D807DF
:100D500008F056C0C03482E5D807C8F4C03282E536
:100D6000D80708F047C08C2F8695869520E2829F91
:100D7000C0011124C37021E030E002C0220F331FF4
:100D8000CA95E2F7E901C82BD92BDD68D4CF8C2FA7
:100D900086958695877020E2829FC0011124C370DA
:100DA00021E030E002C0220F331FCA95E2F7E901CB
:100DB000C82BD92BDC68BFCFC03C82E5D80750F4E4
:100DC0008C2F8F71C03AD24580F5982F84EF906AAE
:100DD000EC01B1CFCE01805C9245809708F07DCFC9
:100DE000DC2FDF71C0EFD06AA6CFA497D064A3CF69
:100DF000D065A1CF8C2F8F71D82FC1EFD06A9BCF38
:100E00008C2F86958695877020E2829FC0011124E1
:100E1000C37021E030E002C0220F331FCA95E2F711
:100E2000E901C82BD92BDA6886CFE6DEC0E0D82FDF
:100E3000D06281CF8C2F8F71DFDE93E0CC0FDD1F6E
:100E40009A95E1F7DF70282F84FF04C090E1899F15
:100E500090011124C22FD0696ECF8D2F8F71CCDEFF
:100E6000082F8C2F90E025DE902BEC01E1CFCF9264
:100E7000DF92FF920F931F93CF93DF936C0100914A
:100E8000C4071091C5078091C2079091C307082B32
:100E9000192BCFE0D0E081E090E00C2E02C0880F4B
:100EA000991F0A94E2F780239123892B61F42197FB
:100EB00090F7F12C8F2DDF91CF911F910F91FF9023
:100EC000DF90CF900895FC2EB6018C2FD1DDE3DEAC
:100ED000019769F3EFCF0F931F93CF93FC01258107
:100EE00000811181C801211571F0611561F0BFDF2A
:100EF000C82F682FC801E6DCB8018C2FB9DDCF916F
:100F00001F910F91089513DDC82FF6CFCF93DF9374
:100F1000EC01ADDFBE01ACDDBEDEDF91CF91089507
:100F2000FC012481211599F080819181EFDF282F28
:100F300092959F70963099F060F4925F9F70923016
:100F400030F4203FB1F038F481E0283E38F080E002
:100F500008959A5FF3CF81E0243FC9F7089591E0A7
:100F6000213F09F090E081E0283E08F080E0892BE5
:100F7000089581E00895F894E82FE295EF70F0E08D
:100F800041A18F7021E001C0220F8A95EAF7922FCC
:100F90009095942391A392A1822F892B82A3789478
:100FA00008958554990BBC01990F990B892F0E94C4
:100FB000C42820E030E040E451E40E945A289B011C
:100FC000AC0160E070E080E090E40E94352620E013
:100FD00030E04CED53E40C949227CF92DF92EF92E5
:100FE000FF926B017C0140E050E09A010E941029C1
:100FF00081110AC0809190008F7380939000FF90C0
:10100000EF90DF90CF90089580919000806880935A
:101010009000C092DC06D092DD06E092DE06F092EF
:10102000DF0620E030E040E051E4B601C7010E9455
:1010300092279B01AC0160E074E284E79BE40E948C
:101040005A286B017C010E941929462F572F509373
:101050009700409396006091C40170E080E090E0BA
:101060000E94C4289601A7010E94922720E030E048
:1010700048EC52E40E945A280E941929462F572F03
:101080005093990040939800BACFE1E7F0E0808157
:101090008D7F8083E0E980818F73808308958091C4
:1010A000C501811121C01092F106EFDF1092F00608
:1010B0001092EF061092ED061092EE06E2EFF6E0C7
:1010C00080E090E0A0E8BFEB1082118282839383DE
:1010D000A483B58316821782389627E0E233F2079D
:1010E00099F781E08093C50108958091BB07811134
:1010F000D6CF0895E0917F07F0918007309739F0BF
:101100000190F081E02D309711F00995089580E06D
:101110000895A3E0B0E0EFE8F8E00C94B629209140
:10112000D4063091D50628173907B1F08093D4063C
:101130009093D506E0917F07F0918007309761F09A
:101140000084F185E02D309739F023E029838A83EC
:101150009B83CE01019609952396E2E00C94D22957
:10116000A3E0B0E0E6EBF8E00C94B6292091D206BB
:101170003091D30628173907B1F08093D2069093A7
:10118000D306E0917F07F0918007309761F00084EB
:10119000F185E02D309739F024E029838A839B8301
:1011A000CE01019609952396E2E00C94D229809114
:1011B000190208952FB7F89480914307909144073E
:1011C000A0914507B09146072FBF08950895FC01EF
:1011D0008091C6069091C7068617970748F061155B
:1011E000710529F48091E8008E778093E800CB01A7
:1011F00040E0009741F4411106C08091E80082FF71
:1012000030C080E00895209135072115B1F12530D7
:10121000B1F12091E80023FD2EC02091E80022FDCD
:10122000ECCF2091E80020FFE4CF4091F300209123
:10123000F200342F009719F02830310558F041E0C2
:101240002830310509F040E02091E8002E77209306
:10125000E800CFCF41914093F10001972F5F3F4FBE
:10126000E9CF80913507811541F0853041F08091BB
:10127000E80083FFC2CF81E0089582E0089583E013
:101280000895982F9093E900891771F07091EC0000
:101290002091ED005091F00021FD09C09F5F973033
:1012A00089F78093E9000895762F242F50E030913C
:1012B000EB003E7F3093EB003091ED003D7F3093AB
:1012C000ED003091EB0031603093EB007093EC0057
:1012D0002093ED005093F0002091EE0027FDDECF2B
:1012E00008958091C00687FF13C08091E80082FFB7
:1012F00006C08091E8008B778093E8000895809184
:1013000035078111F2CF0895809135078115D9F302
:101310008091E80080FFF8CF8091E8008E77ECCFD5
:101320002091E4003091E50095E6A9012091EC00C0
:10133000822F817020FF06C08091E80080FF06C0E8
:1013400080E008952091E80022FD1AC080913507C1
:10135000811589F0853089F08091EB0085FD0FC003
:101360002091E4003091E50042175307F9F29150C3
:10137000E1F684E0089582E0089583E0089581E035
:101380000895CF93DF93C8EDD0E088818F7E888366
:10139000E7EDF0E080818160808384E082BF81E0BE
:1013A0008093BF0688818E7F8883E2EE1082109240
:1013B000DA00A1EEB0E01C9288818F778883888163
:1013C0008068888388818F7D888319BC1092350757
:1013D0001092BE06109234071092BD06A0EE8C91BA
:1013E0008B7F8C9388818160888342E060E080E01D
:1013F00048DFA1EEB0E08C918E7F8C93E2EEF0E0BE
:10140000808181608083808188608083E0EE80813C
:101410008E7F8083888180618883DF91CF9108955A
:10142000E8EDF0E080818E7F80831092E2001092E0
:10143000DA001092E100A0EEB0E08C9181608C9314
:1014400080818F77808319BCA7ED8C918E7F8C93E0
:1014500080818F7E80831092BF0608959FB7F89495
:101460001092C9069FBF90913507943009F047C08C
:101470002091E9009091EC002F7090FB992797F94B
:10148000922B23E02093E9002091EB0020FF34C051
:101490002091EE0027FF30C02091C806211521F0D1
:1014A0002091E80025FF28C01092C80626E0309160
:1014B000E80035FF14C08093F1008091E80085FDBD
:1014C00027C08091E80080FFFCCF8091E8008E77F4
:1014D0008093E8009F709093E90080E00895309138
:1014E0003507343049F43091EB0035FD05C021500B
:1014F00041F481E08093C8069F709093E9008FEFDC
:101500000895EFE9FFE03197F1F700C00000CFCF79
:101510008FB7F89421E02093C9068FBFDBCF81E01D
:101520008093E00080E28093D8001092C9008FE1A0
:101530009EE40197F1F700C00000A7E0B0EBCD01F9
:1015400080930B0890930C08A0930D08B0930E089D
:1015500088E19CE00FB6F894A895809360000FBED8
:1015600090936000FFCF0F931F93CF93DF93EB0116
:101570008A0190913507943059F58093E9008FEFF7
:101580009091E80095FD06C095ED9A95F1F7000061
:101590008150B1F78091E80085FF1AC0C1DE81114A
:1015A00012C08091E80085FD06C08091E8008E772A
:1015B0008093E800F3CF88818093F10001501040C0
:1015C00011F02196EECF8091E8008E778093E800AD
:1015D000DF91CF911F910F910895CF93DF93EC018D
:1015E00048E050E0BC0181E0BEDF88E0FE01AAECEB
:1015F000B6E001900D928A95E1F7DF91CF910895C1
:1016000040E250E0BC0182E0AECF43E050E0BC01DC
:1016100082E0A9CF90911A02913099F0A6E9B6E044
:10162000EFEF90E02C91821759F01196EF3F19F4EB
:10163000211101C0E92F9F5F9630A1F7EF3F41F5DF
:1016400008959091C70797FFE9CFE82FE695E695B3
:10165000E695803F68F4F0E0E456F94F877021E0AA
:1016600001C0220F8A95EAF78281822B8283089536
:101670009091BE0790FFE4CF1F928F938CEA92E087
:101680009F938F93D5D80F900F900F900F90089540
:10169000FE2FFF0FFF0BEC56F94FE8CF90911A0287
:1016A000913021F49091C70797FD0CC0E6E9F6E070
:1016B0009191891302C0DF011E9296E0EC39F9077F
:1016C000B9F70895E82FE695E695E695803F70F422
:1016D000F0E0E456F94F9DEF81FD97EF80FF95957F
:1016E00082FD929582818923828308959091BE071D
:1016F00090FFE7CF1F928F938EE892E09F938F9396
:1017000097D80F900F900F900F900895CF93C82FF8
:101710008091C80782FB992790F99C17E9F0C0FBDC
:1017200082F98093C8076091C7077091C80784E069
:1017300090E00E94802A82E056D98091BE0780FF07
:101740000BC01F92CF9389E396E09F938F9370D83D
:101750000F900F900F900F90CF910895FC01608132
:1017600087E090E00C94662A0F931F93CF93DF934A
:1017700080911A02813009F068C08091C70787FF05
:1017800064C047D980939D0640E250E06FE577E062
:101790008CE996E00E94322A892B09F451C080E23C
:1017A000ECE9F6E0AFE5B7E001900D928A95E1F73C
:1017B000E0917F07F0918007309709F441C00480E1
:1017C000F581E02D3097E1F186E080939C068CE96D
:1017D00096E009958091BE0782FF32C080FF0DC060
:1017E00080919D061F928F9383E096E09F938F9345
:1017F0001FD80F900F900F900F90CCE9D6E00DEF0F
:1018000015E08091BE0780FF0AC08A811F928F93E6
:101810001F930F930DD80F900F900F900F9021965C
:1018200086E0CA3BD80769F78091BE0780FF08C0F1
:101830008BEF95E09F938F930E9418040F900F9069
:10184000DF91CF911F910F910895E3D88093940673
:1018500048E050E061E877E084E996E00E94322AAF
:10186000892B71F388E0E4E9F6E0A1E8B7E00190A4
:101870000D928A95E1F7E0917F07F091800730970C
:10188000F9F20280F381E02D3097D1F284E996E0FD
:1018900009958091BE0782FFD3CF80FF0EC0809153
:1018A00094061F928F9380E296E09F938F930E94FD
:1018B00018040F900F900F900F9004E916E0CAE9FA
:1018C000D6E08091BE0780FF0EC0F80182811F9292
:1018D0008F938AE196E09F938F930E9418040F9054
:1018E0000F900F900F900F5F1F4FC017D10749F750
:1018F0008091BE0780FFA4CF88E196E09BCFCF9375
:10190000C82F8115A1F08238A1F4F4DB81FD0FC04E
:1019100089E380DE29DF8FEF97EE23E0815090404E
:101920002040E1F700C0000089E3B8DE1DDFCF9161
:101930000895833889F4DEDB80FDF9CF83E56ADE24
:1019400013DF8FEF91EE24E0815090402040E1F7CB
:1019500000C0000083E5E9CF843889F4CBDB82FD49
:10196000E6CF87E457DE00DF8FEF91EE24E0815071
:1019700090402040E1F700C0000087E4D6CF8450BB
:10198000813A68F580911A02813021F48091C7076D
:1019900087FD0EC0E6E9F6E08CE996E02081C217EB
:1019A000D1F031968E179F07C9F78C2F33DEBECF4B
:1019B000EC2FE695E695E695F0E0E456F94F828146
:1019C00090E04C2F477021E001C0220F4A95EAF7C2
:1019D0008223892B51F38C2F61DEC6DEE6CF8C2F5C
:1019E000805E883060F4C77081E001C0880FCA95BE
:1019F000EAF7C091BF07C82BC093BF0797CF8C2FC2
:101A0000855A833028F48C2F8452990B82DB8FCF38
:101A1000C85ACB3108F08BCFEC2FF0E0EE0FFF1F50
:101A2000E55AF94F808191819BDB81CF811509F4C3
:101A30003FC0823849F45EDB81FF3AC089E3EADDCA
:101A400093DE89E32BDE90CE833841F453DB80FFB5
:101A50002FC083E5DFDD88DE83E5F4CF843841F4F1
:101A600049DB82FF25C087E4D5DD7EDE87E4EACF4F
:101A7000982F9450913A30F3982F905E983058F404
:101A8000982F81E091FD84E090FD880F92FD829572
:101A90000E943005D8CF982F955A933018F480E0E3
:101AA00090E037CB885A8B3118F480E090E058CB27
:101AB0000895811531F09091BF07982B9093BF073F
:101AC00053CE0895811519F00E9430054DCE08952A
:101AD0001092BF0780911A02813099F48091C70754
:101AE00087FF0FC0EEE9F6E08EE111928A95E9F7E3
:101AF00080E090E00EDB80E090E032DB1092C907DE
:101B000033CEE6E9F6E086E0F0CFAAE2B0E0EBE81B
:101B1000FDE00C94B52980EC96E0FC010196209143
:101B2000F100208326E0883C9207B9F78091C10636
:101B3000893009F457C0C8F4823009F4B2C0833048
:101B400009F482C0813081F18091E80083FFE6C012
:101B50008091C0069091C1069A3008F0DFC0E92F4D
:101B6000F0E0ED50F54D0C94A0298A3009F489C0BD
:101B70008B3051F78091C006813231F78091C406D5
:101B80009091C506892B01F78091E800877F8093AB
:101B9000E800A7DB81E09091C206911101C080E0CE
:101BA00080931A0295DFD0CF8091C006813A61F60A
:101BB0008091E800877F8093E8008091C40690912F
:101BC000C506892B59F060E080E090E070E0FFDA14
:101BD0008091E8008B778093E800B6CF68E08AECCC
:101BE00096E0F4CF8091C006813209F0ADCF8091AC
:101BF000C4069091C506029708F0A6CF8091E80030
:101C0000877F8093E8008091E80082FF18C02091D0
:101C1000F3008091F200922F029731F48091F1004D
:101C2000813011F0863021F48091F1008093190207
:101C30008091E8008B778093E80053DB85CF80911B
:101C400035078111E0CF80CF8091C006813A09F03D
:101C50007BCF8091C4069091C506892B09F074CF83
:101C60008091E800877F8093E8008091E80080FF02
:101C7000FCCF80911A028093F1008091E8008E776A
:101C8000DACF8091C006813209F05ECF8091E80002
:101C9000877F8093E80025DB8091C306809318023C
:101CA00053CF8091C006813A09F04ECF8091E80071
:101CB000877F8093E8008091E80080FFFCCF8091CF
:101CC0001802D9CF803889F0823841F58091C40656
:101CD0008F70873018F58093E9008091EB0085FBC9
:101CE000882780F91092E90006C080913407880F98
:101CF0009091BD06892B9091E800977F9093E80022
:101D00008093F1001092F1008091E8008E7723C05B
:101D1000811116C08091C206813009F18091E800DE
:101D200083FF0AC08091E800877F8093E80080915C
:101D3000EB0080628093EB00AA96E3E00C94D1293B
:101D4000823061F78091C206811579F01092E90026
:101D50008091E800877F8093E800C3DADFCF93307B
:101D600009F080E080933407F1CF8091C4068F7032
:101D7000282F2150263090F68093E9002091EB0027
:101D800020FFE4CF933031F48091EB0080628093A8
:101D9000EB00DCCF9091EB0090619093EB0021E0A1
:101DA00001C0220F8A95EAF72093EA001092EA0018
:101DB0008091EB008860EBCF8111B0CF8091C2069B
:101DC0008F77182F8091E3008078812B8093E30038
:101DD0008091E800877F8093E80083DA8091E800B3
:101DE00080FFFCCF8091E30080688093E30083E074
:101DF000111101C082E08093350790CF8058823066
:101E000008F08CCF8091C2069091C3068C3D23E0F0
:101E1000920789F583E08A838AE289834FB7F89431
:101E2000DE01139620E03EE051E2E32FF0E0509314
:101E30005700849120FF03C082958F703F5F8F70A1
:101E40008A30B8F0895C8D931D922F5F243169F739
:101E50004FBF8091E800877F8093E8006AE270E0DE
:101E6000CE010196B4D98091E8008B778093E80089
:101E700055CF805DE8CF292F30E02330310509F4BC
:101E80004EC078F52130310509F47DC084E590E03D
:101E9000E4EFF1E02230310509F040CF2091E80075
:101EA000277F2093E8002091C6063091C70682174D
:101EB000930708F49C0140E02115310509F068C042
:101EC000411166C08091E80082FDCDCF8091350739
:101ED000811549F2853039F28091E80083FFF2CF15
:101EE000C2CF8091C4069091C5062132310509F414
:101EF0003BC02232310509F011CF8330910508F043
:101F00000DCFFC01EE0FFF1FE754FA4F0190F08157
:101F1000E02D8A549A4FDC018C9190E011C0282F5B
:101F200030E0813089F022303105B1F0232B09F007
:101F3000F5CEE6E7F2E0E4918E2F90E0E6E7F2E0FE
:101F4000009709F4EBCEAACFEAE6F2E0E4918E2FF7
:101F500090E0EAE6F2E0F4CFEAE5F2E0E4918E2FD9
:101F600090E0EAE5F2E0ECCF8330910508F0D6CEC0
:101F7000880F991FFC01E154FA4F0190F081E02D88
:101F800089E090E08BCF82E190E0E8E4F2E086CF58
:101F900080913507811509F466CF853009F463CF48
:101FA0008091E80083FD5FCF8091E80082FD8ACFB9
:101FB0008091E80080FF80CF4091F3008091F20093
:101FC000942F2115310519F08830910550F041E02A
:101FD000089709F040E08091E8008E778093E80050
:101FE0006BCF44914093F100319621503109019615
:101FF000E8CF803809F092CE8091E800877F809307
:10200000E8008091BE068093F1007ECE811186CEDD
:102010008091C206182F823008F080CE8091E800AF
:10202000877F8093E8001093BE065BD91115B9F045
:1020300084E08093350742E061EC81E022D942E2FE
:1020400061EC82E01ED942E261EC83E01AD9809112
:102050003507843051F482E080931B025FCE80917B
:10206000E30087FDE5CF81E0E4CF81E0F5CFA1E09B
:10207000B0E0EDE3F0E10C94B62963EE7EEF80E092
:1020800090E00E94802A60E082E090E00E94662A50
:1020900081E090E08093C2071092C30761E083E083
:1020A0000E94662A60E074E184E090E00E94802A49
:1020B0001982CE01019652DB60E070E0AB018FE047
:1020C00090E00E94782A60E070E0AB0183E190E04C
:1020D0000E94782A2196E2E00C94D229809132075E
:1020E00081113DC087E090E00E94592A8093A107AA
:1020F00082FD14C08091BE0780FF08C08AEC92E088
:102100009F938F930E9418040F900F908091A107C6
:1021100087608093A10781EA97E020DBE2EFF6E099
:1021200080E090E0A0E8BFEB10821182828393836D
:10213000A483B58316821782389627E0E233F2072C
:1021400099F70E9445083E9A82E0809390008AE1C8
:102150008093910081E0809332070C944F0808959A
:10216000A0E0B0E0E6EBF0E10C94B0296B017C015B
:102170009D01A9010E94102987FF04C0F7FAF0947D
:10218000F7F8F0948091EF06811509F454C080911E
:102190003207811101C0A2DF02EF16E0C7E0D0E0F4
:1021A0009601A701F80162AD73AD84AD95AD0E94B3
:1021B0001029811139C0CE0123E0880F991F2A957B
:1021C000E1F78E50994F27E08A32920719F5109265
:1021D0002A0710922B07A0E8BFEB10922C07109251
:1021E0002D07A0932E07B0932F071092300710925F
:1021F0003107C1E0C093EC068091F10681508093D5
:10220000F106811118C00E944508C093C5011092C3
:10221000EF0611C028E0FC013896DC0101900D9218
:102220002A95E1F70896CFCF219708501109CF3FA3
:10223000DC0709F0B5CFCDB7DEB7E8E00C94CC29C8
:10224000EF92FF920F931F93CF93DF93E091F106EC
:10225000E11509F446C2E15088E0E802F0011124DA
:10226000EE50F94F02811381D481C58140E050E0E6
:102270009A01C801AD2FBC2FBC01CD010E941029CD
:1022800018160CF02EC2E090EA06F090EB060E94C1
:10229000DA088E199F097C0164E670E00E947929B2
:1022A000E091A207E93038F4F0E0E350F54D0C94EA
:1022B000A0291092E1068091E006811589F10E9423
:1022C000DA08BC0180E090E00E94C22820E030E003
:1022D00048E451E40E945A2820E030E040EA51E40A
:1022E0000E94A6250E941429660F771F660F771F8C
:1022F0006B537A4FFB01608171818281938120E071
:1023000030E040E05FE30E9435269B01AC01AD2F39
:10231000BC2FB801CD010E9492278B01D82FC92F65
:10232000AD2FBC2FB801CD01CDB7DEB7E6E00C94E0
:10233000CE291092E10681E08093E006BCCF109296
:10234000E10680EDE81687E0F80648F488EEE81626
:1023500083E0F80650F089E18093C401ACCF64516A
:10236000710988E1653B7105B8F38CE0F5CF1092F7
:10237000E10620E030E040EA52E4C801AD2FBC2F76
:10238000BC01CD010E94102987FD95CF20E030E0EF
:1023900040E253E4C801AD2FBC2FBC01CD010E9427
:1023A000102987FF2DC00E94242A68E270E00E9455
:1023B0008D29CC96BC01872F880F880B982F0E94FF
:1023C000C4288B01D82FC92F8BE0E816F10408F43C
:1023D000B2C0C7010B970A9718F01092C4016BCFD7
:1023E0002EECA7012403C001259F900D1124865EC9
:1023F0009B4F6AE070E00E9479296093C4015BCF33
:1024000020E030E040EA53E4C801AD2FBC2FBC010E
:10241000CD010E94102987FF27C00E94242A68EE60
:1024200073E00E948D2988519C4FBC01872F880F33
:10243000880B982F0E94C4288B01D82FC92F86E0C3
:10244000E816F10408F477C0C70106970F9728F63D
:102450002EECA7012403C001259F900D1124865E58
:102460009B4F6FE070E0C7CF20E030E040E254E4E3
:10247000C801AD2FBC2FBC01CD010E94102987FFE0
:1024800028C00E94242A60ED77E00E948D2988549C
:10249000944FBC01872F880F880B982F0E94C42867
:1024A0008B01D82FC92F80E1E816F10408F443C04E
:1024B000C7014097059708F090CF2EECA7012403A1
:1024C000C001259F900D1124865E9B4F65E070E052
:1024D00092CF20E030E040EA54E4C801AD2FBC2F99
:1024E000BC01CD010E94102987FFE5CE0E94242A5D
:1024F00060ED77E00E948D298854944FBC01872FAE
:10250000880F880B982F0E94C4288B01D82FC92FC1
:1025100084E2E816F10478F0C70184970F9708F079
:102520005CCF2EECA7012403C001259F900D112440
:102530008A50964F96CF82E30FCF81E08093E106D9
:1025400080EDE81687E0F80650F488EEE81683E0A0
:10255000F80650F120E030E040E05FE329C0CB0115
:102560004497853B910508F038CF80E090E00E94C9
:10257000C22820E030E040EA51E40E94F52720E044
:1025800030E044E353E40E945A289B01AC010E94CE
:10259000922720E030E048E451E40E9492270E9414
:1025A00019298CE0861BD8CE20E030E040E85EE3BD
:1025B000AD2FBC2FB801CD010E9492278B01D82FDF
:1025C000C92FD3CE81E08093E1062AE0269FC00187
:1025D000279F900D112468EB7BE00E9479298C5D88
:1025E0009540BC0197FF03C071956195710970E03A
:1025F00080E090E00E94C4282EE333EC4EE259E3E1
:102600000E94922720E030E040EC5EE30E94F62733
:102610000E941929F2CE8E2D837090E062E300971C
:10262000A9F064E670E0E0FE60E080E00E94C2286D
:1026300020E030E040E05EE30E94922720E030E0BE
:1026400040E45FE30E94F6270E94192981E080930D
:10265000E10687E0E822F12CE114F10409F4BDCE93
:10266000CCCE81E08093E10682E38093C4018CEFBD
:10267000E8168AE3F80608F41ECE80E090E00E9497
:10268000C22820E030E047E153E40E94F52720E033
:1026900030E04AE754E40E945A2820E030E048E461
:1026A00052E40E94922720E030E040EA51E40E9488
:1026B000A6250E941429660F771F660F771F6B539C
:1026C0007A4FFB012081318142815381C801AD2FB6
:1026D000BC2FBC01CD010E9492278B01D82FC92F9E
:1026E000EACD00E010E0E8011BCEA0E0B0E0EBE7AF
:1026F000F3E10C94AB294B015C017A018091A107B5
:1027000080FF7BC080913207811101C0E7DC40E08F
:1027100050E09A01B401C5010E94102987FF04C04E
:10272000B7FAB094B7F8B0947090F106872D815045
:10273000990B6C01EC01CF3FDC0709F048C0C72DB5
:10274000CF5FC93008F477C088E08093F10648E392
:1027500050E06AEF76E082EF96E00E943F2AC8E000
:1027600081E08093EC068093EF06C150DD0B0E9460
:10277000DA08FE0123E0EE0FFF1F2A95E1F7EE5085
:10278000F94F8083918382829382A482B582E6820C
:10279000F7820E94DA088093EA069093EB06809114
:1027A000C501811551F180917100826080937100A3
:1027B000809190008068809390008091EF06811551
:1027C00019F03EDD0E94ED071092C50116C08E0182
:1027D00033E0000F111F3A95E1F70E50194F9401A5
:1027E000A501F80162817381848195810E9410297D
:1027F00081111FC0CC15DD052CF0CDB7DEB7EDE0A3
:102800000C94C729219688E0F8013896D8010190E8
:102810000D928A95E1F70E94DA08F8018087918786
:1028200082869386A486B586E686F786085F1F4F64
:10283000E1CF219780CFC093F10692CFA8E0B0E01E
:10284000E4E2F4E10C94AE29FE013196DF0188E068
:102850001D928A95E9F795E1E92E96E0F92E8F0110
:10286000BE2EA12EF70181917F018F3F09F444C054
:10287000F894E82FE295EF70F0E021A18F7041E02D
:1028800001C0440F8A95EAF7922F942B91A392A14D
:10289000842F8095892382A3789400C0E9E1F6E033
:1028A00021E030E0C12CD12C41914F3F79F0A42F91
:1028B000A295AF70A05EB0E08C9190E04F7002C026
:1028C000959587954A95E2F780FF4AC080E090E0B1
:1028D000C82AD92A220F331F86E0E532F80721F7EC
:1028E000F70182918F3F11F00E94BB0780EA8A9521
:1028F000F1F7F801C082D1820E5F1F4F89E1E8161F
:1029000086E0F80609F0AECF48E050E06B2D7A2D56
:1029100085E597E00E94322A892B21F188E0EB2D92
:10292000FA2DA5E5B7E001900D928A95E1F781E0D7
:1029300080934C070E94DA0880934A0790934B07D4
:102940008091480790914907892B31F00E944F08E8
:1029500010924807109249072896EAE00C94CA2979
:10296000C901B6CF80914C07811551F300914A07F8
:1029700010914B070E94DA08801B910B059700F31A
:1029800048E050E065E577E08DE497E00E94322A68
:10299000892B49F088E0E5E5F7E0ADE4B7E0019088
:1029A0000D928A95E1F710924C07CACF0E94D10789
:1029B0004FEF5FEF9ACE0F931F93CF93DF93EC010E
:1029C0008B018091A10780FD07C00E944F08DF9115
:1029D000CF911F910F91089580913207811101C00D
:1029E0007DDB8091EF0681110E944F0881E080938A
:1029F000F0061092E906C093E706D093E806C801F6
:102A00000093E5069093E6061092E4061092E20623
:102A10001092E3066C817D818E819F810E9419292D
:102A20009B01A3E5B7E00E94C02A20EF30E040E020
:102A300050E00E94CF2A688179818A819B81A90117
:102A400054DE0E94DA0880933E0790933F07E0919E
:102A5000E706F091E8068091E2069091E30623E014
:102A6000880F991F2A95E1F7E80FF91F6481758196
:102A7000868197810E9419299B01A3E5B7E00E94F6
:102A8000C02A20EF30E040E050E00E94CF2A20939F
:102A9000ED063093EE069BCFCF93DF9319D80E94BB
:102AA00075080E94DA08EC0163E070E08BE795E0BE
:102AB00082DF0E94DA088C1B9D0B8A3F910528F06B
:102AC0000E944F08DF91CF9108958FE99FE0019711
:102AD000F1F700C00000EDCFDFDF88E19CE00FB62A
:102AE000F894A895809360000FBE90936000FFCF8C
:102AF0008091A10781608093A10781EA97E00E94FD
:102B0000AE0B62E070E086ED91E055CF62E070E0E0
:102B100086EC91E050DF8FEF91EE24E08150904001
:102B20002040E1F700C000000E944F088091A107FB
:102B30008E7F8093A10781EA97E00C94AE0B81E031
:102B40008093BB0768E070E084E891E034CF0E9496
:102B500075081092BB0768E070E084E491E02BCF29
:102B600081E08093BA0768E070E084E091E023CFD1
:102B7000FF920F931F93CF93DF93C62FD42FF22E84
:102B80008115B1F06093BC070E94DA088093D606E5
:102B90009093D70681E0C1FD84E0C0FD880FC2FD9F
:102BA00082950E94590DCDB7DEB7E5E00C94CF2990
:102BB0008091BC07681335C00091D6061091D706E6
:102BC0000E94DA08801B910B883C910550F51D2F5F
:102BD000105ECD17A1F0C77001E0802F01C0880FF3
:102BE000CA95EAF70E94620D183048F48D2F87705D
:102BF00001C0000F8A95EAF7802F0E94590D8F2D92
:102C00000E947F0C8F2D0E94160D81E0D1FD84E083
:102C1000D0FD880FD2FD8295183028F60E94620DF3
:102C2000C2CF81E0C1FD84E0C0FD880FC2FD829566
:102C3000F5CFA3E2B0E0EFE1F6E10C94AE297C0120
:102C4000FC018481811509F41EC161E0C7010E9465
:102C50006B078C010A3884E7180709F0ADC0F7014B
:102C60008581811561F09091A107892F8D7F91FF5A
:102C700082608093A10781EA97E00E94AE0B809169
:102C8000A107982F9370933009F07BC0F7019581CD
:102C9000911509F476C09801205834472230310547
:102CA00008F4B1C69091BB0791116BC09091BA071F
:102CB000911167C080FF65C0609134027091350248
:102CC00080913602909137029B01AC010E94F62759
:102CD0005B016C010E94242ABC01990F990B892F7A
:102CE0000E94C42820E03EEF4FEF56E40E945A288D
:102CF0002DEC3CEC4CE45DE30E94922720E030E0B8
:102D000040E85FE30E94F6279501A6010E94922702
:102D100060932402709325028093260290932702E9
:102D20000E94242ABC01990F990B892F0E94C42864
:102D300020E03EEF4FEF56E40E945A282DEC3CEC89
:102D40004CE45DE30E94922720E030E040E85FE33E
:102D50000E94F627209134023091350240913602CC
:102D6000509137020E94922760932C0270932D029B
:102D700080932E0290932F0263E070E08CE192E04A
:102D80001ADE01348EE7180709F467C002348EE7B3
:102D9000180709F4B1C000348EE7180709F47BC0A6
:102DA000003884E7180709F0B5C0F701858181155F
:102DB00009F457C19DDE58C00B3884E7180749F461
:102DC000F7018581811509F45ACF8091A1078260AE
:102DD00050CF0C3884E7180709F01BC6F70185812E
:102DE000811509F44CCF8091A1078D7F42CFF70167
:102DF0008581811509F443CFACEDB3E41092340220
:102E000010923502A0933602B093370238CFF70103
:102E10008581811509F433CF29E038E348E95FE380
:102E200060913402709135028091360290913702A0
:102E30000E9492275B016C0120E030E84BEB54E4E8
:102E40000E94102987FF1BCFA0923402B092350256
:102E5000C0923602D092370212CFF70185818115D8
:102E6000B1F085EE0E947F0C8091C607877059F003
:102E7000F7018581811539F08091C80782FF03C071
:102E800082E00E94F304A396EAE00C94CA2985EE3E
:102E90000E94160DE9CFF7018581811529F30E9463
:102EA0004F0866E070E088E692E085DD84E00E94ED
:102EB000520483E00E94520486E00E94520485E09E
:102EC0000E94440480E090E00E94612A833E9E4F6D
:102ED00009F0CDD884E090E00E94612A9093C80761
:102EE00080688093C7076091C7077091C80784E026
:102EF00090E00E94802AB8CFF7018581811509F4FE
:102F0000B3CF66E070E088E392E055DD85E00E9493
:102F10005204AACF013884E7180739F4F7018581F4
:102F2000811509F49EC0F2DD9FCF023884E71807AF
:102F300051F4F7018581811509F493C08091A107AF
:102F400080FDF1CF37CF043984E71807A9F4F701E2
:102F50008581811509F485C08091A20790E00196D2
:102F600069E070E00E948D298093A20764E070E020
:102F700088E992E020DD78CF053984E7180751F41D
:102F8000F7018581811509F46CC08091A20790E05A
:102F90000896E6CF003984E7180739F4F7018581F0
:102FA000811509F45EC0CBDD5FCF013984E71807D6
:102FB00039F4F7018581811509F453C0C8DD54CF78
:102FC000023984E7180751F4F7018581811509F466
:102FD00048C08091BB078111F1CFE5CF011581E792
:102FE000180731F4F70185818115D9F1B9DD3CCF9E
:102FF000013081E7180759F4F7018581811589F1BE
:103000001092BA0768E070E088EB92E0B3CF02302C
:1030100081E7180749F4F7018581811511F1809145
:10302000BA078111EDCFE2CF033984E71807C9F45D
:10303000F70185818115A9F00E94750820919803F8
:1030400030E02395237030E02093980348E2429FBC
:10305000C001439F900D112465E070E088509D4FA2
:1030600089CF4091BB07F701411105C08091BA0794
:10307000811509F4E3C05581511509F44BC0003E98
:10308000110561F40E94750881E08093B9071092E0
:10309000B8071092B7071092B607E6CE023E1105A8
:1030A00071F40E9475088091B907811519F081E0CB
:1030B0008093B8071092B9071092B707D5CE033E98
:1030C000110591F48091B807811521F10E947508CE
:1030D0001092B90781E08093B7071092B50710925C
:1030E000B3071092B407C0CE0235110551F4809198
:1030F000990390919A030A978093990390939A0366
:10310000B3CE0135110531F48091990390919A0362
:103110000A96F2CF80919803813070F4F7012181F3
:1031200084E090E0821B282F9081905F892F9CE0A3
:10313000299F800D11240EC009F048C0F70181813C
:1031400024E030E0281B822F880F880F820F9081A7
:103150009D5C890FD82E511509F467C0411511F0F7
:103160008D2D24DC8091B907811551F08091B6072F
:10317000E82FF0E0ED55F84FD0828F5F8093B607CF
:10318000C80183529245029708F06ECEF7018581FF
:10319000811509F483C41092BC079801305723327B
:1031A000310508F064C484E090E00E94612A8093B5
:1031B000C7079093C807F801E150F047E232F105E4
:1031C00008F064C0EA5FF44D0C94A029823059F4F1
:1031D000F701218184E090E0821B282F90819D5C83
:1031E000892F97E0A5CF8330E9F483E2E3E9F5E0A6
:1031F0009E012F5F3F4FD90101900D928A95E1F713
:10320000F7018081FE01E80FF11DD70111968C9125
:1032100024E030E0281B80859CE0299F800D11244C
:10322000875F98CF9CE0D92E96CF411509F4A8CF9F
:103230008D2D0E94D1070E94B010A2CF8581F80188
:10324000E851FC47E730F10508F0A0CFE85DF44D08
:103250000C94A02926E241EE61EE8ADC05CE27E23D
:1032600045EE65EEFACF26E241EE60EEF6CF27E2BC
:1032700045EE64EEF2CF26E241EE62EEEECF27E2BB
:1032800045EE66EEEACF28E241E0EBCF8091C7073A
:1032900081608093C7076091C7077091C80784E079
:1032A00090E00E94802A0E94680DDECD8091C807C0
:1032B00088608093C807EFCF8091C7078260E9CF0D
:1032C0008091C7078460E5CF8091C7078860E1CF10
:1032D0008091C8078160EDCF8091C8078260E9CFF7
:1032E0008091C7078061D5CF8091C7078062D1CF19
:1032F0008091C7078064CDCF0E94680D8091C70779
:103300008068C7CF8091C7078C608093C70764E04F
:1033100070E08BED93E04FDBBECF8091C8078360F8
:103320008093C80764E070E08BEB93E0F4CF80916A
:10333000C7078E7FAECF8091C807877FBACF8091B5
:10334000C7078D7FA6CF8091C7078B7FA2CF8091C3
:10335000C707877F9ECF8091C8078E7FAACF8091B5
:10336000C8078D7FA6CF8091C7078F7E92CF8091AF
:10337000C7078F7D8ECF8091C7078F7B8ACF0E9432
:10338000680D8091C7078F7784CF8091C707837FAF
:103390008093C70762E070E08BEA93E0BCCF809136
:1033A000C8078C7F8093C80762E070E08BE993E0E8
:1033B000B2CF9091C707892F8B7F92FF8460877F60
:1033C00092FF88608093C70783FFE4CFA0CF8091EE
:1033D000C807982F909590FB80F990FB81F9809316
:1033E000C80781FFE1CF9ECF9091C707892F8F7BC0
:1033F00096FF80644ECF0E94680D9091C707892F79
:1034000097FB87F9805845CF61E08EE090E00E94FD
:10341000662A41CF60E0F9CF9091C707892F8F7E50
:1034200094FF806136CF9091C707892F8E7F90FFE0
:1034300081602FCF9091C807892F877F93FF886085
:1034400038CF89E226C389E234C39801205E324531
:1034500020323105F0F4811132C0802F8F71D82EC7
:1034600001E010E002C0000F111F8A95E2F7602F03
:1034700083E090E00E94662A20E8D29EC0011124D9
:1034800060E170E085509C4F96DAC8010E943104DB
:10349000EBCC811511F10B359CE7190709F48BC0B2
:1034A0000C359CE7190709F47BC00A359CE719071E
:1034B00009F47FC002309CE7190709F48AC0033081
:1034C0009CE7190708F079C001159CE7190709F472
:1034D0007DC001301C4709F478C0F70100811181DB
:1034E000811509F48CC0C8010E943707D82E682FB7
:1034F000C8010E946204B8018D2D0E9438050E9407
:103500004B06182FA92EF701B580D680D2948FE0F4
:10351000D8228091C607877001F1CB2CB114F1F04D
:10352000892F807F803461F0812F805E8830A8F001
:10353000892F807E803221F4123078F0D11469F026
:103540008091C80782FF09C082E00E94F304809145
:10355000C6078770CC24C3948111C12C8A2D829513
:103560008F70883009F43AC108F068C0843008F0E0
:103570004BC0823008F473C00A2D0F708A2D807FF3
:10358000803211F00295007F113008F4A1C009F4D7
:10359000EAC0B11409F4F5C0D11409F4B7C077C07A
:1035A0008091C807002482FF0394802D0E94860B1F
:1035B0005BCC81E0FBCF80E0F9CF09F08ECF6FEFDD
:1035C0007FEF80E090E00E94802A86DA65DA0E9430
:1035D0008F0A9091BE07892F8E7F90FF8160809324
:1035E000BE0780FF09C080E696E09F938F930E94FC
:1035F00018040F900F9038CC8EE496E0F6CFC801F7
:103600000E949704D82E77CF09F4CCC0C11409F4D6
:103610001EC18091C60780FD1AC1F70115828695EB
:10362000869586950E944404C70103DB8091C607F6
:103630008695869586950E94520409C1893009F4C1
:1036400061C18A5F8F70823008F7123F09F06CC148
:103650008A2D8F71B11065C10E944404F6C00A2DF5
:103660000F708A2D803110F00295007FB114B9F0EF
:10367000011569F0812F805E883010F0111109C0AA
:103680008091BF07802B8093BF070E94B40B812FCE
:103690002FC08091C907802B8093C907F6CF812F57
:1036A0000E94160D011509F4B1CF812F805E88307C
:1036B00010F0111104C0802F0E94300506C0009543
:1036C0008091C90780238093C9070E94B40B9ECFC5
:1036D0008091C80782FD16C0B11469F0011539F058
:1036E0008091BF07802B8093BF070E94B40B80E0BE
:1036F0000E947F0C8BCF80E00E94160D011509F40B
:1037000085CFD9CFB114A9F0D11004C0802F0E9469
:10371000590D7CCF8D2D813009F078CF8091C00775
:10372000902F9823091709F471CF802B8093C0073D
:103730006DCFD1106BCF802F0E94620D9091C0078A
:10374000802F892329F0802F809589238093C007BB
:103750008091C107902F982309F458CF0095082332
:103760000093C10753CF8D2DB11421F0863008F09E
:103770004DCFCCCF853008F049CF802F0E94620D0D
:1037800045CFD114D1F3193349F48FEF97EE23E0ED
:10379000815090402040E1F700C00000812F0E943E
:1037A000160D34CF8A2D869586958370813060F012
:1037B00009F02CCF812F9A2D9370B11002C080E0B8
:1037C00090E00E94B00822CF812F9A2D9370B11003
:1037D00002C080E090E00E94890818CF8A2D837093
:1037E00009F048C0B11031C0412F4295469547704D
:1037F000440F440F212F2F7030E0042E02C0220FFF
:10380000331F0A94E2F780E090E014FF09C08FE0D4
:1038100090E002C0880F991F4A95E2F78095909535
:103820004A2D469546954370642F4230D1F043307F
:10383000A9F04091C2075091C307613069F0822B13
:10384000932B842395230E9431040E947A0860E020
:10385000C7010E946B0717CB242B352B822B932B90
:10386000F2CF822B932B2091C2073091C30782277E
:103870009327E9CFB114A1F1A0FEE7CF412F4295E4
:1038800046954770440F440F212F2F7030E0042ECF
:1038900002C0220F331F0A94E2F780E090E014FF89
:1038A00009C08FE090E002C0880F991F4A95E2F7A7
:1038B000809590954A2D469546954370642F4230E9
:1038C000C1F0433099F04091C4075091C507613071
:1038D00059F0822B932B842395230E943604B5CF75
:1038E000823008F4B2CFCACF242B352B822B932BF6
:1038F000F4CF822B932B2091C4073091C5078227E8
:103900009327EBCF8A2D8F70082FB11431F00E94CE
:103910004404812F0E94590D98CF812F0E94620D7F
:10392000802F0E94520491CF70F4103FC9F0113FD4
:1039300091F0B11409F453C0D11409F44DC0812F92
:103940000E947F0C82CF133FF1F0143F91F79091CA
:10395000C80792FD28C08A2D8F71B11411F37CCE57
:103960008D2DB11471F0853008F06FCF8A2D8F71D5
:10397000282F81E090E002C0880F991F2A95E2F776
:10398000BACF8630F1CF80E090E0B11409F4A5CF32
:103990008A2D8F71282F81E090E002C0880F991F37
:1039A0002A95E2F79ACFB11461F08A2D8F7192FFB8
:1039B00053CE982F990F990F990F93609093C60744
:1039C0004BCE81E00E94F3048D2D823008F43DCF70
:1039D00082E00E94F30439CF8A2D8F713DCED1143D
:1039E00079F0193349F48FEF97EE23E0815090403E
:1039F0002040E1F700C00000812F0E94160D25CF66
:103A00008A2D8F718ECF003884E7180709F086CA97
:103A1000D1C90F3884E7180709F4E9C90D3884E7DC
:103A2000180709F4F4C90E3884E7180709F027C904
:103A3000F7018581811509F422C929E038E348E9B5
:103A40005FE360913402709135028091360290916B
:103A500037020E945A285B016C0120E030E042E806
:103A600052E40E94692918160CF009C9EDC9063103
:103A70009CE7190709F0E9CC8091BF078A7A91E0A9
:103A8000811101C090E09093BD07811509F4D9CC54
:103A900085E30E940A0B0E94B40BE6C906319CE73D
:103AA000190709F0D2CC8091BD07811509F4CBCC60
:103AB00085E30E944E0BEFCF80910A08803170F4AD
:103AC00080910908811551F0E091CB072091CA0738
:103AD00030910508409104082E1301C00895BF01DC
:103AE00087E0E89FF0011124DF01A453B84F14963A
:103AF0008C911497811551F111968C911197831324
:103B000025C08C91841322C015968C911597811134
:103B10001DC012968D919D91A0910608B091070845
:103B20008A1B9B0B883C910588F480910A088F7052
:103B3000806180930A08EE52F84F80818F70806117
:103B4000808384E098E075D80C94E9046F5F7F4F20
:103B5000FB01E770C1CFADE0B0E0E1EBFDE10C941B
:103B6000AB298C0186E0F801DE01189601900D92D8
:103B70008A95E1F7F801F580C48084E0882E88E01A
:103B8000982E7090080871101FC0C114D1F0F11464
:103B900009F41AC1C8010E949007811509F414C1E3
:103BA00087E0F801D40101900D928A95E1F78C2D00
:103BB000813031F480910408909105080E948607B5
:103BC0007BDFFF24F39453C0E080A280B380D090C9
:103BD000090880910608909107089501281B390B68
:103BE000D11409F4B9C0283C310508F08FC0C114C4
:103BF00041F390910508C18080910A08803108F056
:103C000057C0C91213C0909104089E110FC0F11043
:103C100049C08F70806180930A0884E098E009D8D9
:103C200080910A08F8018683F12C21C0F1103AC076
:103C300040E06C2D8E2D0E94CA0440E06C2D8E2D2C
:103C40000E94CA04F82E8111EFCF888599850E94C1
:103C50008607292F22952F70903470F49F702230A0
:103C6000A0F09115B1F0F8019681903190F48F2D6C
:103C70002D96EDE00C94C7292A5F2F70223068F052
:103C8000C8010E941916FD2CF2CF911511F0811573
:103C900071F3805E883058F3F3CF803F40F3815F4B
:103CA0008330F9CF80910A08816080930A08BCCFE5
:103CB000C91207C0909104089E1103C0F11409F4C1
:103CC0006CC0C8010E949007811509F47DC0F114F1
:103CD00009F47AC080910A08803278F020910408B3
:103CE0003091050829833A83AB82BC827D821E8293
:103CF0008F83CE0101960E94191687E0F801A4E097
:103D0000B8E001900D928A95E1F75ACF80910A08A8
:103D1000803150F484E098E00E941916F40187E0A5
:103D200011928A95E9F780CFC11409F44ACF209106
:103D3000050891812913C5CF909104089E11C1CF28
:103D4000F110BFCF8683C8010E941916F40187E0E5
:103D500011928A95E9F735CF283C3105F8F6C11460
:103D600009F42FCFF11481F1909105088181981306
:103D700021C0809104088E111DC080910A0880FD29
:103D800010C0803170F08683807F803F39F086815B
:103D9000982F907F905F8F70892B8683C8010E9437
:103DA000191687E0F801A4E0B8E001900D928A9519
:103DB000E1F707CFC8010E94900781119ECF809143
:103DC0000A08816080930A08C8010E941916F9CE7A
:103DD000ABE1B0E0EEEEFEE10C94B4294E8B5F8BCC
:103DE000688F798F8A8F192F9B8F91111092C90735
:103DF0001D8A86E0FE017696DE011F9601900D92E7
:103E00008A95E1F70A8D011561F00B8B1C8B61E03F
:103E1000CE010F960E946B0761E0CE010F960E94C3
:103E20006B070B8B1C8B87E0FE013F96DE0118961B
:103E300001900D928A95E1F7CE0108968CDE8111F2
:103E40002EC02091CA073091CB0787E0AE01485FB2
:103E50005F4FFA0147505109DA0101900D928A959E
:103E6000E1F78C858115D9F0822F90E083958770DA
:103E700090E0AC0134171506E1F097E0929FD00175
:103E80001124A453B84F9E012F5F3F4FF9010190B9
:103E90000D929A95E1F74093CA070E94E904809138
:103EA000CB079091CA07891311C06B96E4E00C947C
:103EB000D0290E94680D1092CA071092CB07E4E047
:103EC000F8E087E011928A95E9F7E9CF27E0829F31
:103ED000C00111248453984F3EDE811531F3809147
:103EE000CB079091CC07019687708093CB07D7CFF3
:103EF000A6E0B0E0EEE7FFE10C94B4290E94DA08F6
:103F00008C0180915D0790915E078017910771F099
:103F100019821A820E94DA08BC0149815A8180E024
:103F200090E056DF00935D0710935E072696E4E06D
:103F30000C94D02900D000D000D0CDB7DEB785B723
:103F4000806885BF85B7806885BF84B7877F84BF59
:103F50000FB6F894A8958091600088618093600006
:103F6000109260000FBE80E890E00FB6F894809346
:103F70006100909361000FBE81E080931B028EE28E
:103F80009AE080939206909393060E94100A0E94F2
:103F9000C1098091E20084608093E200789480916E
:103FA0003507811599F08091E9001091EC008F7030
:103FB00010FB112717F9182B1092E9008091E800E7
:103FC00083FD0E94850D1F701093E90082E084BD7F
:103FD00093E095BD9AEF97BD80936E0065E1E62E64
:103FE00066E0F62E09E116E0F70181917F018F3F2F
:103FF00011F00E94BB070E151F05B1F759E1E52E20
:1040000056E0F52E05E216E0F70181917F018F3F22
:1040100011F00E94BB070E151F05B1F7EDE4F7E0A4
:1040200088E011928A95E9F7E5E5F7E088E01192DA
:104030008A95E9F76E9A769A80E090E00E94612A6C
:10404000833E9E4F11F00E94371082E090E00E9464
:10405000592A8093BE0784E090E00E94612A8093F1
:10406000C7079093C8070E941E148FEF96E721E0C0
:10407000815090402040E1F700C000000E941E14D3
:1040800080914D0780FF08C06FEF7FEF80E090E0E8
:104090000E94802A0E948F0A83E090E00E94592AA1
:1040A00090E00E9431040E946E1086EE91E08093B1
:1040B0007F079093800780913507853009F052C0C3
:1040C0008091BE0780FF08C08EE093E09F938F939E
:1040D0000E9418040F900F9000E110E442E1F42ECA
:1040E00038C080913507843029F10E944F08109222
:1040F000330788E190E00FB6F894A89580936000AC
:104100000FBE1093600083B7817F846083BF83B745
:10411000816083BF7894889583B78E7F83BF0FB605
:10412000F894A89580916000886180936000109257
:1041300060000FBE0E941E14EDE4F7E080819181C3
:10414000892B09F05AC1329685E597E08E179F07B3
:10415000A9F780913507853009F4C3CF0E94680D17
:104160000E947A080E941E1436E3E32E37E0F32EF5
:104170008DE497E03C01FC01D7012D913D918081B8
:1041800091814EE357E04A175B0709F492C03296DB
:104190002817390791F38091BE0781FF44C084E35B
:1041A00093E09F938F930E9418040F900F900DE45B
:1041B00017E0A12CB12C24E2822E23E0922EBF9294
:1041C000AF928FE293E09F938F930E9418048CE24A
:1041D00093E09F938F930E941804F801808151808F
:1041E0000E5F1F4F0E942104C82E852D0E942104BE
:1041F000CF928F9386E293E09F938F930E9418044F
:104200009F928F920E9418048FEFA81AB80A8DB758
:104210009EB70C960FB6F8949EBF0FBE8DBF84E07C
:10422000A816B10461F6912CF301019111913F019F
:10423000F701C190D1907F01C016D10651F1C0267F
:10424000D126812C91E0A92EB12CC6018A219B2177
:10425000892BB1F089829A820E94DA088B839C8331
:1042600081E08D8391E098012A213B21232B09F4E1
:1042700090E09E8349815A816B817C818D81A8DD8C
:104280008394AA0CBB1C882D8C30F9F6F70112938D
:1042900002939394892D843039F68FB7F894409126
:1042A00043075091440760914507709146078FBFBF
:1042B00005C02817390709F06ECF1ADE8091420732
:1042C00081110DC0009140071091410701151105A2
:1042D00009F50E94DA088093400790934107809186
:1042E000B7078115E9F10091B3071091B4070115E3
:1042F000110559F50E94DA088093B3079093B4072B
:104300008091B507282F30E0811509F450C0C9010C
:10431000019751C00E94DA08801B910B8D329140A9
:10432000F0F28091A10780FF06C065E070E080EFA9
:1043300091E00E94DB140E94DA0880933E0790937C
:104340003F0781E080934207CACF0E94DA08801BB2
:10435000910B2091990330919A032817390750F255
:104360000E947A0890914707891709F4A4CE809398
:1043700047079FB7F89440914307509144076091D5
:104380004507709146079FBF9091BE079570953085
:1043900009F091CE1F928F938BE493E09F938F93BC
:1043A0000E9418040F900F900F900F9084CE809170
:1043B000B6078150990B4091BB07411599F02D55D7
:1043C000384FF90110818D55984FFC0180810E9472
:1043D000D1070E94B0108091BB07811519F0812F81
:1043E0000E94D6148091B50790E001966091B607BF
:1043F00070E093D78093B507B3CF809134078115D0
:1044000009F4A7CE09BDF9BC09B400FEFDCF809127
:10441000D8008F7D8093D8008091E00082608093E7
:10442000E0008091E00081FDFCCF0E94680D91CEFC
:104430001F920F920FB60F9211242F923F925F920C
:104440006F927F928F929F92AF92BF92CF92DF92A4
:10445000EF92FF920F931F932F933F934F935F938E
:104460006F937F938F939F93AF93BF93CF93DF937C
:10447000EF93FF938091D8069091D906A091DA0628
:10448000B091DB060196A11DB11D8093D8069093D3
:10449000D906A093DA06B093DB066091D806709136
:1044A000D9068091DA069091DB066CD66B017C010F
:1044B00020E030E040E85CE36091DC067091DD06CE
:1044C0008091DE069091DF062DD59B01AC01B601EF
:1044D000C701A6D687FDB5C01092D8061092D9069E
:1044E0001092DA061092DB065090F0068091EF06EB
:1044F000811103C0511409F499C00E94DA08EC013B
:10450000511020C0512C8091EF06C52D811589F0E6
:10451000C091E006C11103C0C091E106C52902EFB8
:1045200016E0E12CF12C8091F106E816F1040CF470
:1045300002C18091EC06811509F479C01092EC0655
:10454000C82F75C0C0903E07D0903F070E94DA0880
:104550008090ED069090EE068C199D0988159905BE
:1045600088F20E94DA081C01C0933E07D0933F07EF
:10457000A090E206B090E306E5012196C093E20622
:10458000D093E3060E94DA088093EA069093EB0644
:104590006090E5067090E606C615D70558F0809144
:1045A000E406811509F440C01092E2061092E30679
:1045B000C0E0D0E00091E7061091E8068091E9069E
:1045C0007E0153E0EE0CFF1C5A95E1F781115BC0B0
:1045D000F50143E0EE0FFF1F4A95E1F7E00FF11FF1
:1045E000D801AE0DBF1D2D913D914D915D91608122
:1045F00071818281938114D6811145C081E08093BD
:10460000E9064FE050E080E090E0BC010E947513A5
:10461000A092E206B092E3063FE0E32EF12CE09296
:10462000ED06F092EE066FCF0E944F08C0E0809139
:10463000EF0681119EC08091F00681119AC00E9400
:104640004508FF91EF91DF91CF91BF91AF919F917D
:104650008F917F916F915F914F913F912F911F911A
:104660000F91FF90EF90DF90CF90BF90AF909F9011
:104670008F907F906F905F903F902F900F900FBE24
:104680000F901F901895C80CD91CC1018C199D0959
:104690006C011092E906F701E00FF11F648175814A
:1046A00086819781C6D59B01A3E5B7E069D720EF46
:1046B00030E040E050E073D781E0681A71082C15B3
:1046C0003D0518F4C615D705E0F0C093E206D09377
:1046D000E30691E0E92EF12CC216D30618F42C194A
:1046E0003D09790183E0CC0FDD1F8A95E1F7C00F0A
:1046F000D11F688179818A819B81A7010E947513EE
:104700008ECFC21AD30A2196FE0123E0EE0FFF1FBF
:104710002A95E1F7E00FF11F648175818681978109
:1047200088D59B01A3E5B7E02BD720EF30E040E030
:1047300050E035D7C4CFF801C680D780C6010197B5
:104740008E3F9F4F80F4A080B1800E94DA088A19C2
:104750009B098C159D0538F0F80162817381848175
:1047600095810E94B0108FEFE81AF80A085F1F4F7A
:10477000DACEC11509F465CF0E9420110E94ED0721
:1047800060CF1F921FB61F9211248F939F93AF93F8
:10479000BF9380913307811113C08091430790919B
:1047A0004407A0914507B09146074196A11DB11D50
:1047B0008093430790934407A0934507B09346071F
:1047C000BF91AF919F918F911F901FBE1F90189521
:1047D00078941F921FB61F9211248F939F93AF93CB
:1047E000BF938091430790914407A0914507B091F2
:1047F00046070196A11DB11D80934307909344077E
:10480000A0934507B0934607BF91AF919F918F91B9
:104810001F901FBE1F9018951F920F920FB60F92F8
:1048200011242F933F934F935F936F937F938F93B5
:104830009F93AF93BF93EF93FF938091E10082FF2B
:1048400014C08091E20082FF10C08091E1008B7F54
:104850008093E1002091BC062F5F822F62E33DD55B
:10486000911509F4DCC02093BC068091DA0080FF2A
:104870002CC08091D80080FF28C08091DA008E7F04
:104880008093DA008091D90080FFFEC080E189BD6D
:1048900082E189BD09B400FEFDCF81E08093350738
:1048A0008AE792E09F938F930E9418048091BF063D
:1048B0000F900F90811109C00E94100A0E94C10937
:1048C0008091E20084608093E2008091E10080FFAB
:1048D00022C08091E20080FF1EC08091E2008E7FA6
:1048E0008093E2008091E20080618093E2008091F9
:1048F000D80080628093D80019BC85E0809335078A
:1049000082E892E09F938F930E94180483E0809343
:104910001B020F900F908091E10084FF37C08091BF
:10492000E20084FF33C080E189BD82E189BD09B422
:1049300000FEFDCF8091D8008F7D8093D8008091BC
:10494000E1008F7E8093E1008091E2008F7E809372
:10495000E2008091E20081608093E2008091BE06D7
:10496000811509F49FC084E08093350786E892E0C2
:104970009F938F930E941804809135070F900F909A
:10498000843009F097C082E080931B028091E1009F
:1049900083FF34C08091E20083FF30C08091E1004A
:1049A000877F8093E10082E0809335071092BE06F6
:1049B0008091E1008E7F8093E1008091E2008E7F04
:1049C0008093E2008091E20080618093E20042E007
:1049D00060E080E00E9441098091F000886080934F
:1049E000F0008AE892E09F938F930E94180481E080
:1049F00080931B0280931A020F900F90FF91EF910A
:104A0000BF91AF919F918F917F916F915F914F91E6
:104A10003F912F910F900FBE0F901F9018951092FD
:104A2000BC068091C906811509F41FCF8091350716
:104A30008430B9F49091E9008091EC009F7080FB84
:104A4000882787F9892B93E09093E9009091EB00F8
:104A500090FF04C09091EE0097FD08C08F70809386
:104A6000E9001092C90601CF1092F1009091E80080
:104A700095FDFACF9091E80090FFF0CF9091E8007B
:104A80009E779093E800EACF19BC109235078EE725
:104A900092E09F938F930E9418041092BF060F908C
:104AA0000F9013CF8091E30087FF02C083E05CCFBB
:104AB00081E05ACF81E068CF1F920F920FB60F921C
:104AC00011241F932F933F934F935F936F937F9383
:104AD0008F939F93AF93BF93CF93DF93EF93FF9306
:104AE000E9EEF0E080811091EC008F7010FB11274F
:104AF00017F9182B1082C0EFD0E08881877F888358
:104B000078940E94850DE9EEF0E01082888188603B
:104B100088831F701083FF91EF91DF91CF91BF9138
:104B2000AF919F918F917F916F915F914F913F9145
:104B30002F911F910F900FBE0F901F9018955ED070
:104B400018F011F062D038F456C089C0E92F64D053
:104B5000B0F35523C9F3E7FB621773078407950782
:104B6000A8F199F3E92FFF2788232AF03197660FE0
:104B7000771F881FDAF7952F5527442332F091507D
:104B80005040220F331F441FD2F7BB27E91BF50B00
:104B9000621B730B840BB109C1F222F4620F731F05
:104BA000841FB11D31972AF0660F771F881FBB1F26
:104BB000EFCF915050405AF041F0882332F0660F09
:104BC000771F881F91505040C1F7939506C0869576
:104BD000779567959F5FD9F7F8CF9F3F31F0915058
:104BE00020F4879577956795B795880F911D9695D1
:104BF000879597F908959FEF80EC089500240A9413
:104C00001616170618060906089500240A941216A7
:104C1000130614060506089557FD9058440F551FB6
:104C200059F05F3F71F04795880F97FB991F61F02E
:104C30009F3F79F087950895121613061406551FA5
:104C4000F2CF4695F1DF08C0161617061806991F11
:104C5000F1CF86957105610508940895E894BB2706
:104C600066277727CB0197F90895FA01EE0FFF1F0A
:104C700030962105310599F16115710561F480388F
:104C8000BFE39B0749F168949038810561F0803853
:104C9000BFEF9B0741F0992342F5FF3FE105310546
:104CA000210511F1E8940894E795D901AA2329F484
:104CB000AB2FBE2FF85FD0F310C0FF5F70F4A69546
:104CC000E0F7F73950F019F0FF3A38F49F779F93E7
:104CD0000CD00F9007FC905808953EF08CCF60E008
:104CE00070E080E89FE308954FE79F775F934F93CD
:104CF0003F932F93A4D02F913F914F915F9112D169
:104D000005C019F40EF02EC0A9CF75CF8DDFC8F302
:104D10009638C0F707F80F92E8942BE33AEA48EB8D
:104D20005FE70ED10F920F920F924DB75EB70F92C1
:104D3000C6D0ECEAF0E01CD04F915F91EF91FF916B
:104D4000E595EE1FFF1F49F0FE57E0684427EE0F80
:104D5000441FFA95E1F74195550B38D00F9007FEA7
:104D60002CC0089597F99F6780E870E060E008958F
:104D7000DF93CF931F930F93FF92EF92DF927B010C
:104D80008C01689405C0DA2EEF01D8D0FE01E894BA
:104D9000A5912591359145915591AEF3EF0137D10C
:104DA000FE019701A801DA9479F7DF90EF90FF9068
:104DB0000F911F91CF91DF9108959B01AC0160E0AD
:104DC00070E080E89FE376C1CDCF07CF2DDFE8F319
:104DD0009923D9F3940F511DBBF39150504094F097
:104DE00059F0882332F0660F771F881F915050408A
:104DF000C1F79E3F510544F7880F911D9695879501
:104E000097F908955F3FACF0983E9CF0BB278695DC
:104E100077956795B79508F4B1609395C1F7BB0F87
:104E200058F711F460FFE8CF6F5F7F4F8F4F9F4FB0
:104E3000E3CF15CF0EF0D1CEDECE689493CFF4DE63
:104E4000C8F39923D1F3C6F3DF93CF931F930F9346
:104E5000FF92C92FDD2788232AF02197660F771F3D
:104E6000881FDAF720E030E040E85FEB9FE3883905
:104E700020F0803E30F021968F77B8D0E4EDF0E05E
:104E800003C0B4D0E1E0F1E073DF8B01BE01EC01BF
:104E9000FB2E6F5771097595771F880B990B74D18D
:104EA00028E132E741E35FE349D0AF2D9801AE013D
:104EB000FF900F911F91CF91DF91A9D0A0C1FA016E
:104EC000DC01AA0FBB1F9B01AC01BF5728F42227AE
:104ED0003327442750781FC0B75188F4AB2F0024E4
:104EE000469537952795011CA395D2F3002069F0CC
:104EF000220F331F441FB395DAF30DD076C0613013
:104F00007105A0E88A07B94630F49B01AC01662719
:104F1000772788279078309621F020833183428349
:104F2000538308950BD06BC169DE28F06EDE18F054
:104F3000952309F017CF5FCE112491CE6DDEA0F33B
:104F4000959FD1F3950F50E0551F629FF001729F1E
:104F5000BB27F00DB11D639FAA27F00DB11DAA1F3D
:104F6000649F6627B00DA11D661F829F2227B00D8A
:104F7000A11D621F739FB00DA11D621F839FA00D15
:104F8000611D221F749F3327A00D611D231F849F65
:104F9000600D211D822F762F6A2F11249F575040BC
:104FA0008AF0E1F088234AF0EE0FFF1FBB1F661F57
:104FB000771F881F91505040A9F79E3F510570F010
:104FC000D1CE4DCE5F3FECF3983EDCF386957795DE
:104FD0006795B795F795E7959F5FC1F7FE2B880F0B
:104FE000911D9695879597F908955058BB27AA2744
:104FF0000ED005C103DE30F008DE20F031F49F3F13
:1050000011F41EF4F8CD0EF4E095E7FBABCEE92FDA
:1050100003DE80F3BA17620773078407950718F059
:1050200071F49EF51BCE0EF4E0950B2EBA2FA02D39
:105030000B01B90190010C01CA01A0011124FF2745
:10504000591B99F0593F50F4503E68F11A16F04040
:10505000A22F232F342F4427585FF3CF469537953F
:105060002795A795F0405395C9F77EF41F16BA0B04
:10507000620B730B840BBAF09150A1F0FF0FBB1FB2
:10508000661F771F881FC2F70EC0BA0F621F731FFB
:10509000841F48F4879577956795B795F7959E3F58
:1050A00008F0B3CF9395880F08F09927EE0F9795E6
:1050B000879508950CD0A3C0A8DD40F09FDD30F0A7
:1050C00021F45F3F19F04ECE5111C9CD94CDA4DD2E
:1050D00098F39923C9F35523B1F3951B550BBB27BF
:1050E000AA2762177307840738F09F5F5F4F220F6C
:1050F000331F441FAA1FA9F333D00E2E3AF0E0E865
:1051000030D091505040E695001CCAF729D0FE2FB0
:1051100027D0660F771F881FBB1F26173707480742
:10512000AB07B0E809F0BB0B802DBF01FF279358F8
:105130005F4F2AF09E3F510568F014CE90CD5F3F3F
:10514000ECF3983EDCF3869577956795B795F795E0
:105150009F5FC9F7880F911D9695879597F90895D8
:10516000E1E0660F771F881FBB1F62177307840774
:10517000BA0720F0621B730B840BBA0BEE1F88F783
:10518000E0950895E89409C097FB3EF490958095CA
:10519000709561957F4F8F4F9F4F9923A9F0F92FFD
:1051A00096E9BB279395F695879577956795B7957B
:1051B000F111F8CFFAF4BB0F11F460FF1BC06F5F61
:1051C0007F4F8F4F9F4F16C0882311F096E911C073
:1051D000772321F09EE8872F762F05C0662371F094
:1051E00096E8862F70E060E02AF09A95660F771FA8
:1051F000881FDAF7880F9695879597F90895092EF5
:105200000394000C11F4882352F0BB0F40F4BF2B21
:1052100011F460FF04C06F5F7F4F8F4F9F4F089561
:1052200034D008F481E0089504D06894B11117CD0A
:105230000895FADC88F09F5790F0B92F9927B7515D
:10524000A0F0D1F0660F771F881F991F1AF0BA954A
:10525000C9F712C0B13081F001DDB1E00895FECC94
:10526000672F782F8827B85F39F0B93FCCF3869540
:1052700077956795B395D9F73EF49095809570959D
:1052800061957F4F8F4F9F4F0895990F0008550FDD
:10529000AA0BE0E8FEEF16161706E807F907C0F0BC
:1052A00012161306E407F50798F0621B730B840BC4
:1052B000950B39F40A2661F0232B242B252B21F49E
:1052C00008950A2609F4A140A6958FEF811D811D3E
:1052D0000895DBDF08F48FEF0895992778E0880FB1
:1052E000991F961708F0961B881F7A95C9F7809525
:1052F0000895AA1BBB1B51E107C0AA1FBB1FA6171D
:10530000B70710F0A61BB70B881F991F5A95A9F76E
:1053100080959095BC01CD01089597FB072E16F45A
:10532000009406D077FD08D0E4DF07FC05D03EF4FA
:10533000909581959F4F0895709561957F4F089541
:10534000EE0FFF1F0590F491E02D09942F923F92EC
:105350004F925F926F927F928F929F92AF92BF9285
:10536000CF92DF92EF92FF920F931F93CF93DF9331
:10537000CDB7DEB7CA1BDB0B0FB6F894DEBF0FBE8E
:10538000CDBF09942A88398848885F846E847D84DB
:105390008C849B84AA84B984C884DF80EE80FD80DD
:1053A0000C811B81AA81B981CE0FD11D0FB6F89453
:1053B000DEBF0FBECDBFED0108958F929F92AF92D9
:1053C000BF92CF92DF92EF92FF92CF93DF93EC01E7
:1053D000688179818A819B816115710581059105BB
:1053E00021F464E279ED8BE597E02DE133EF41E0C4
:1053F00050E09AD049015A019B01AC01A7EAB1E4FF
:10540000AFD06B017C01ACEEB4EFA5019401B4D038
:10541000DC01CB018C0D9D1DAE1DBF1DB7FF03C070
:105420000197A109B04888839983AA83BB839F779A
:10543000DF91CF91FF90EF90DF90CF90BF90AF9032
:105440009F908F900895B9CF80E091E0B6CFB0E003
:10545000A0E08093000190930101A0930201B0931A
:1054600003010895FB01DC0104C08D9101908019B6
:1054700021F441505040C8F7881B990B08956817D4
:10548000790768F4FB01DC01E40FF51FA40FB51FD9
:1054900002C002900E9241505040D8F7089500C0CB
:1054A000FB01DC0102C001900D9241505040D8F741
:1054B0000895F999FECF92BD81BDF89A992780B5DC
:1054C0000895A8E1B0E042E050E020C0262FF9990D
:1054D000FECF92BD81BDF89A019700B4021639F053
:1054E0001FBA20BD0FB6F894FA9AF99A0FBE089524
:1054F0000396272FECDFEADF252FE9DF242FE7CF04
:105500000196272FE4DFE2CFDC01CB01FC01F99902
:10551000FECF06C0F2BDE1BDF89A319600B40D92FF
:1055200041505040B8F70895052E97FB16F40094AB
:105530000FD057FD05D033D007FC02D046F408C089
:1055400050954095309521953F4F4F4F5F4F0895AF
:1055500090958095709561957F4F8F4F9F4F0895DF
:105560000FD0A59F900DB49F900DA49F800D911D0D
:1055700011240895B7FFF4CFF3DF821B930B089536
:10558000A29FB001B39FC001A39F700D811D112484
:10559000911DB29F700D811D1124911D0895A1E2EE
:1055A0001A2EAA1BBB1BFD010DC0AA1FBB1FEE1F9D
:1055B000FF1FA217B307E407F50720F0A21BB30BE8
:1055C000E40BF50B661F771F881F991F1A9469F764
:1055D00060957095809590959B01AC01BD01CF01C0
:1055E0000895F894FFCF620E880E8E0E880E8E0EF0
:1055F000DC0EFE0E8E0EF90F0610591199119F1137
:10560000B7119D125B11E2120B1331139719131A84
:105610009F195C196019A3196419A719B319701996
:105620000C1A7419B7197819BB19F4197C19BF1918
:10563000FB198219C519D9196819AB196C19AF1959
:105640008D19CF19E719041A0A1A56199B191A1A33
:0E565000331937192A192F193B193F1943191D
:10565E000100000000005C440000004148F1764467
:10566E00000000415C978A44000000411FD592441F
:10567E000000004152D0A444000000415CFFB84439
:10568E00000000410AA7CF44000000410000DC44A6
:10569E00000000410000DC44000000410AA7CF4496
:1056AE00000000415CFFB8440000004152D0A44409
:1056BE00000000411FD59244000000415C978A44CF
:1056CE000000004148F176440000004100005C44B7
:1056DE000000004100005C440000004148F17644A7
:1056EE00000000415C978A44000000411FD592449F
:1056FE000000004152D0A444000000415CFFB844B9
:10570E00000000410AA7CF44000000410000DC4425
:10571E000000004132010000DC44000000410000A6
:10572E005C440000004100005C44000000410000A9
:10573E00DC4400000041D708ED0A000BE608050B1B
:10574E0052D02445000040415C970A4500000041BC
:10575E0052D0A444000000410000DC44000000418F
:10576E005C970A450000A041000001000000000007
:10577E000000803F0000DC43000040400000DC439E
:10578E000000803F0000DC430AA7CF440000004128
:10579E000000DC44000000410000000000008040DA
:1057AE0000005C4500004041000000000000804009
:1057BE0052D02445000040410AA7CF4400000041CA
:1057CE000000DC44000000410000000000008040AA
:1057DE0052D02445000040410000000000008040EF
:1057EE0000005C450000404100005C440000804128
:1057FE005C978A440000804152D0A444000080414E
:10580E000000DC44000080410000DC440000004148
:10581E000AA7CF44000000415CFFB84400000041DD
:10582E0052D0A444000000411FD592440000004114
:10583E005C978A440000004148F176440000004124
:10584E0000005C440000004100005C440000804108
:10585E001F1569440000804148F1764400008041E4
:10586E0000D08244000080415C978A440000804151
:10587E00A4D024440000804100005C44000080411C
:10588E001FD59244000080415CFFC344000080415C
:10589E0000000000000000005CFF43440000804157
:1058AE001FD59244000080410000DC44000080417E
:1058BE0052D024450000804100000000000000008E
:1058CE0000005C440000804148F1764400008041B5
:1058DE005C978A44000080411FD5924400008041AD
:1058EE0052D0A4440000804103640000005C4400D8
:1058FE0000004100005C440000004100005C4400D8
:10590E0000004100005C440000004148F176440074
:10591E0000C04000005C440000C04048F1764400E6
:10592E0000C04000005C440000C04048F1764400D6
:10593E0000C04000005C440000C04048F1764400C6
:10594E0000C04000005C440000C0400AA7CF4400E5
:10595E000000410000DC4400000041000000000097
:10596E0000804052D024450000804100000000001D
:10597E000000000000000000000000000000000019
:10598E000000000000000000000000000000000009
:10599E0000000000000000000000000000000000F9
:1059AE0000000000000000000000000000000000E9
:1059BE0000000000000000000000000000000000D9
:1059CE0000000000000000000000000AA7CF440005
:1059DE000000410000DC4400000041000000000017
:1059EE0000804052D02445000040410000000000DD
:1059FE000080400AA74F4500004041000000000013
:105A0E000000000000000000000000000000000088
:105A1E000000000000000000000000000000000078
:105A2E000000000000000000000000000000000068
:105A3E000000000000000000000000000000000058
:105A4E0000000000000000000000000AA7CF440084
:105A5E000000410000DC4400000041000000000096
:105A6E0000804052D024450000004100000000009C
:105A7E000080405CFF38450000004100000000003F
:105A8E0000804052D024450000004100000000007C
:105A9E0000000000000000000000000000000000F8
:105AAE0000000000000000000000000000000000E8
:105ABE0000000000000000000000000000000000D8
:105ACE00000000000000000000000052D02445003D
