:1000000038C300006FC300006DC300006BC3000065
:1000100069C3000067C3000065C3000063C300003C
:1000200061C300005FC300000C94D8220C94282404
:100030000C948D2257C3000055C3000053C3000029
:1000400051C300004FC300004DC300004BC300006C
:1000500049C300000C94B42245C3000043C3000010
:1000600041C300003FC300003DC300003BC300008C
:1000700039C3000037C3000035C3000033C300009C
:100080000C94E4202FC300002DC300002BC30000FC
:1000900029C3000027C3000025C3000023C30000BC
:1000A00021C300001FC300001DC3000007634236C8
:1000B000B79BD8A71A39685618AEBAAB558C1D3CF9
:1000C000B7CC5763BD6DEDFD753EF6177231BF00BD
:1000D0000000803F08000000BE922449123EABAAF7
:1000E000AA2ABECDCCCC4C3E00000080BEABAAAA52
:1000F000AA3E00000000BF000000803F000000009A
:1001000000084178D3BB4387D1133D190E3CC3BDD2
:100110004282AD2B3E68EC8276BED98FE1A93E4C7F
:1001200080EFFFBE01C4FF7F3F00000000000631EA
:10013000FF0974A1010975150026FF0095207508B7
:100140008102C005010980A101850319012AB700B8
:10015000150126B700950175108100C0050C090135
:10016000A101850419012AA002150126A00295010A
:1001700075108100C005010906A101850605071952
:10018000E029E71500250195087501810205071989
:100190000029EF1500250195F07501810205081968
:1001A000012905950575019102950175039101C01D
:1001B00005010906A101050719E029E71500250138
:1001C00095087501810295017508810105071900DF
:1001D00029FF150026FF00950675088100050819FE
:1001E00001290515002501950575019102950175F7
:1001F000039101C009025400030100A03209040068
:10020000000103010100092111010001224400073E
:100210000581030800010904010001030000000931
:100220002111010001226D00070582032000010950
:100230000402000103000000092111010001221540
:1002400000070583032000011201000200000008DE
:10025000A80301AE0400010200010E0350006C006F
:1002600061006E0063006B0000000A034F004C0049
:100270004B0042000000040309045B435D005B4443
:100280005D005B535D005B575D005B525D00646524
:100290006C5F6B65795F6269743A2063616E277485
:1002A0002064656C3A20253032580A006164645F2E
:1002B0006B65795F6269743A2063616E27742061AF
:1002C00064643A20253032580A00617564696F5FB2
:1002D000696E697420617564696F5F636F6E6669CA
:1002E000672E76616C6964203D20302E205772693C
:1002F00074652064656661756C742076616C7565E3
:100300007320746F20454550524F4D2E0A0073756F
:100310007370656E64696E67206B6579626F617278
:10032000640D0A000A002530313662003A200025AB
:10033000303258000A722F63203031323334353670
:100340003738394142434445460A006C65645F745E
:1003500061736B3A20253032580A002B0014001AC2
:10036000000800150017001C0018000C00120013F4
:10037000002A00290004001600070009000A000BEB
:10038000000D000E000F0033003400E1001D001BC3
:100390000006001900050011001000360037003873
:1003A000002800417EE000E200E30023522C002CF4
:1003B0000024525000510052004F002B0014001A2C
:1003C00000090013000A000D000F0018001C003384
:1003D000002A002900040015001600170007000B72
:1003E00000110008000C0012003400E1001D001B89
:1003F000000600190005000E001000360037003816
:10040000002800417EE000E200E30023522C002C93
:100410000024525000510052004F002B003400368F
:1004200000370013001C0009000A00060015000F29
:10043000002A00290004001200080018000C000720
:10044000000B001700110016003800E10033001403
:10045000000D000E001B00050010001A0019001D01
:10046000002800417EE000E200E30023522C002C33
:100470000024525000510052004F0035021E021F4E
:100480000220022102220223022402250226022740
:10049000022A004C003A003B003C003D003E003F79
:1004A000002D022E022F02300231020100400041D5
:1004B000004200430044004500320264024A004DFD
:1004C0000001000100010001000100010001000124
:1004D000000100AB00AA00A900AE0035001E001FFD
:1004E00000200021002200230024002500260027F0
:1004F000002A004C003A003B003C003D003E003F1B
:10050000002D002E002F003000310001004000417E
:10051000004200430044004500320064004B004E9E
:1005200000010001000100010001000100010001C3
:10053000000100AB00AA00A900AE001E001E001EB4
:10054000001E001E001E001E001E001E001E001EBB
:10055000001E00000014001A000800150017001CFF
:100560000018000C00120013002F000000040016F9
:1005700000070009000A000B000D000E000F0033F9
:10058000003400427E000000000600190000000058
:1005900000110010000000000000000100007C02BB
:1005A0007C20782178237824782578267827782865
:1005B000784C0001000100937480748174157014EC
:1005C00070E052E152E252407E01000100957494C5
:1005D00074907491740071017101000100010001B7
:1005E0000001000100010001000100010001000103
:1005F00000010001000100010001000A0025303265
:100600005820006E6B726F5F7265706F72743A2063
:1006100025303258207C20000A0025303258200036
:100620006B6579626F6172645F7265706F72743A44
:100630002025303258207C20004F6E6573686F741F
:100640003A206163746976653A2025640A0044455E
:100650004255473A2064697361626C65642E0A00F2
:1006600044454255473A20656E61626C65642E0AC6
:10067000000011241FBECFEFDAE0DEBFCDBF04B60D
:1006800003FE19C08091EF079091F007A091F10748
:10069000B091F2078730904BA740B04B61F41092B5
:1006A000EF071092F0071092F1071092F207E0E0C6
:1006B000F8E3099500C027E0A6E7B6E001C01D9267
:1006C000AF3EB207E1F716E0A0E0B1E0EEEEF3E5F1
:1006D00002C005900D92A637B107D9F70E94661E99
:1006E0000C94B9298DCCFF93EF93E0917606F091AD
:1006F0007706309709F00995EF91FF910895FC0175
:100700008591803011F0EFDFFBCF0895FF27E0E205
:1007100030E247FF0CC0419597FF09C0EDE26095BC
:10072000709580959095611D711D811D911D27FF0C
:1007300002C0219530E350E2AA27660F771F881F79
:10074000991FAA1FA41710F0A41B63955A95A9F727
:10075000AA3008F0A95FA05DAF93F395611571050C
:100760008105910541F7ED3211F4EF93F395F217FE
:1007700018F43F93F395FBCF8F91B5DFFA95E1F72E
:100780000895E991F9918591803021F0853219F031
:10079000AADFF9CF089520E0E89455915532C1F3CE
:1007A000503311F4689455915A3348F4505390F3F0
:1007B000220F022E220F220F200D250FF4CF0EF450
:1007C000219589919991533619F3533729F153356E
:1007D00059F1BC0188279927E8945C3621F4899166
:1007E000999168945591543639F446EF7EF077FF2D
:1007F0000DC08FEF9FEF0AC055374AE039F05835EA
:1008000040E121F0523642E009F00895FF93EF9362
:100810007DDFEF91FF91B7CFFF93EF93FC018191C3
:100820008030B9F360DFFBCFFF93EF9368DFF1CF48
:10083000DF93CF93CDB7DEB72596A3DFCF91DF91BE
:1008400008958295982F990F990F9C7C869586958F
:100850008373982B892F880F8A7A96959575892BA3
:1008600008958093A6079093A7070895282F2871CD
:1008700030E02831310531F480648093A8079093EB
:10088000A90708958F7BF9CF21E030E002C0220F45
:10089000331F8A95E2F78091A8079091A907822BD0
:1008A000932BE4CF21E030E002C0220F331F8A9562
:1008B000E2F7209530958091A8079091A9078223AF
:1008C0009323D4CF943090F58C3080F5E82FF0E06E
:1008D0008CE0989FE00DF11D112451E0E1FD54E002
:1008E000E0FD550FE2FD529583E0F695E7958A9578
:1008F000E1F7EE0FFF1FEE0FFF1FE359F84F20E067
:1009000030E070E04191DF01CB01022E02C09695EC
:1009100087950A94E2F78695880B84278523842798
:100920008E932F5F3F4F2430310561F70895292FB3
:10093000943070F58C3060F590E03CE0239F800DA2
:10094000911D1124682F677023E0969587952A954D
:10095000E1F7FC01EE0FFF1FEE0FFF1FE359F84F09
:1009600040E050E080E0219130E0062E02C0369554
:1009700027950A94E2F72170042E01C0220F0A94F1
:10098000EAF7822B4F5F5F4F4430510561F70895BE
:1009900080E00895E091AF079091AE07E91302C09F
:1009A00080E008959F0157E0E59FF0011124E05594
:1009B000F84F5181561306C05081581303C055811A
:1009C000541305C02F5F3F4FF901E770E7CF81E077
:1009D00008958091AF072091AE07281301C00895B4
:1009E00001968770FACF9091AA078095892380930A
:1009F000AA07282F277061F4891751F09091AC074E
:100A000092FF06C08695869586954CDF1092AA07C0
:100A100008958091A3079091AD07892B9091A40729
:100A20009115C9F0892B90911A02913021F490917F
:100A3000AB0797FD11C096E02AE736E040E0915001
:100A4000F90150812F5F3F4F51114F5F9111F7CF47
:100A500041111092A40708959EE122E836E0EECFFE
:100A60008095982F8091A30789238093A3070895E9
:100A7000972F7430C8F46C30B8F48730C0F470E04D
:100A80002CE0929F600D711D112490E3899F600DF1
:100A9000711D1124FB01EE0FFF1FE55AFC4F8591DC
:100AA0009491282F822F089520E090E0FBCF21E041
:100AB000FCCF803E9105D1F1C8F48133910509F452
:100AC00081C048F48932910509F471C08A329105D8
:100AD00009F47FC0089589339105E1F082389105CA
:100AE000C9F08533910509F45DC00895843E9105F0
:100AF000D1F148F4823E910531F1833E910541F1F7
:100B000081EE90E00895863E9105C1F1873E910502
:100B1000F1F108952091AB07237009F064C0209192
:100B2000AC0723FF14C089E290E008952091AB0741
:100B300020FD45C03091AC0730FF09C024FD24C022
:100B400083EE90E008952091AB0722FDF7CF089542
:100B50002091AB0722FD44C03091AC0730FD43C06B
:100B600024FFF5CF11C02091AC0721FFF0CF809179
:100B7000AB0784FD09C087EE90E008952091AB0794
:100B800023FFE5CF24FFF7CF80E090E00895209188
:100B9000AB0723FD2BC03091AC0731FFE1CF84EED2
:100BA00090E008952091AB0725FFD1CFBCCF2091D5
:100BB000AB0725FD1EC02091AC0723FFC8CF89E3FA
:100BC00090E008952091AB0726FFC1CF8AE290E024
:100BD00008952091AB0726FFBACF81E390E00895F6
:100BE00082EE90E0089580EE90E0089586EE90E029
:100BF000089585E390E008959091AB0792FF10C0AF
:100C000041E0282F2471243009F040E031E0282F02
:100C10002871283009F030E0431711F02CE08227CA
:100C200093FF10C041E0282F2471243109F040E0E7
:100C300031E0282F2871283109F030E0431711F0F6
:100C40002CE082273091AC0730FF10C051E0282FF4
:100C50002171213009F050E041E0282F287128301F
:100C600009F040E0541711F029E0822731FF10C04D
:100C700041E0282F2171213109F040E031E0282F97
:100C80002871283109F030E0431711F029E082275C
:100C900094FD877E08950F931F93CF93DF9309DF11
:100CA000EC01D23508F04DC0D03508F0C3C0C03ECD
:100CB000D10530F5CD3CD10508F09AC0C83AD10530
:100CC00078F4C53AD10508F090C0C130D10599F14A
:100CD000CE010497813A910570F1C0E0D0E02BC0BD
:100CE000CE01885A91094B97C0F7C85AD0E0CC0F73
:100CF000DD1FC75FD94F0990D881C02DD4641BC0B8
:100D0000D03490F4D03208F0A8C0C83ED10598F095
:100D1000CE0191509F3108F78D2F6EDF082F8C2F59
:100D200090E0C7DE902B54C08C2F90E0C2DEDF70C5
:100D3000C82FD92BD06ACE01DF91CF911F910F918F
:100D40000895C03882E5D807B8F5C03682E5D807DF
:100D500008F056C0C03482E5D807C8F4C03282E536
:100D6000D80708F047C08C2F8695869520E2829F91
:100D7000C0011124C37021E030E002C0220F331FF4
:100D8000CA95E2F7E901C82BD92BDD68D4CF8C2FA7
:100D900086958695877020E2829FC0011124C370DA
:100DA00021E030E002C0220F331FCA95E2F7E901CB
:100DB000C82BD92BDC68BFCFC03C82E5D80750F4E4
:100DC0008C2F8F71C03AD24580F5982F84EF906AAE
:100DD000EC01B1CFCE01805C9245809708F07DCFC9
:100DE000DC2FDF71C0EFD06AA6CFA497D064A3CF69
:100DF000D065A1CF8C2F8F71D82FC1EFD06A9BCF38
:100E00008C2F86958695877020E2829FC0011124E1
:100E1000C37021E030E002C0220F331FCA95E2F711
:100E2000E901C82BD92BDA6886CFE6DEC0E0D82FDF
:100E3000D06281CF8C2F8F71DFDE93E0CC0FDD1F6E
:100E40009A95E1F7DF70282F84FF04C090E1899F15
:100E500090011124C22FD0696ECF8D2F8F71CCDEFF
:100E6000082F8C2F90E025DE902BEC01E1CFCF9264
:100E7000DF92FF920F931F93CF93DF936C0100914A
:100E8000A8071091A9078091A6079091A707082BA2
:100E9000192BCFE0D0E081E090E00C2E02C0880F4B
:100EA000991F0A94E2F780239123892B61F42197FB
:100EB00090F7F12C8F2DDF91CF911F910F91FF9023
:100EC000DF90CF900895FC2EB6018C2FD1DDE3DEAC
:100ED000019769F3EFCF0F931F93CF93FC01258107
:100EE00000811181C801211571F0611561F0BFDF2A
:100EF000C82F682FC801E6DCB8018C2FB9DDCF916F
:100F00001F910F91089513DDC82FF6CFCF93DF9374
:100F1000EC01ADDFBE01ACDDBEDEDF91CF91089507
:100F2000FC012481211599F080819181EFDF282F28
:100F300092959F70963099F060F4925F9F70923016
:100F400030F4203FB1F038F481E0283E38F080E002
:100F500008959A5FF3CF81E0243FC9F7089591E0A7
:100F6000213F09F090E081E0283E08F080E0892BE5
:100F7000089581E00895F894E82FE295EF70F0E08D
:100F800041A18F7021E001C0220F8A95EAF7922FCC
:100F90009095942391A392A1822F892B82A3789478
:100FA00008958554990BBC01990F990B892F0E94C4
:100FB000902720E030E040E451E40E9426279B0186
:100FC000AC0160E070E080E090E40E94012520E048
:100FD00030E04CED53E40C945E26CF92DF92EF921A
:100FE000FF926B017C0140E050E09A010E94DC27F7
:100FF00081110AC0809190008F7380939000FF90C0
:10100000EF90DF90CF90089580919000806880935A
:101010009000C092C006D092C106E092C206F09243
:10102000C30620E030E040E051E4B601C7010E9471
:101030005E269B01AC0160E074E284E79BE40E94C1
:1010400026276B017C010E94E527462F572F5093DE
:101050009700409396006091C40170E080E090E0BA
:101060000E9490279601A7010E945E2620E030E0B2
:1010700048EC52E40E9426270E94E527462F572F6E
:101080005093990040939800BACFE1E7F0E0808157
:101090008D7F8083E0E980818F73808308958091C4
:1010A000C501811121C01092D506EFDF1092D40640
:1010B0001092D3061092D1061092D206E6EDF6E019
:1010C00080E090E0A0E8BFEB1082118282839383DE
:1010D000A483B58316821782389627E0E631F2079B
:1010E00099F781E08093C501089580919F07811150
:1010F000D6CF0895E0916307F0916407309739F0F7
:101100000190F081E02D309711F00995089580E06D
:101110000895A3E0B0E0EFE8F8E00C947E28209179
:10112000B8063091B90628173907B1F08093B80690
:101130009093B906E0916307F0916407309761F0EE
:101140000084F185E02D309739F023E029838A83EC
:101150009B83CE01019609952396E2E00C949A2890
:10116000A3E0B0E0E6EBF8E00C947E282091B60610
:101170003091B70628173907B1F08093B6069093DF
:10118000B706E0916307F0916407309761F000843F
:10119000F185E02D309739F024E029838A839B8301
:1011A000CE01019609952396E2E00C949A2880914D
:1011B000190208952FB7F894809127079091280776
:1011C000A0912907B0912A072FBF08950895FC0127
:1011D0008091AA069091AB068617970748F0611593
:1011E000710529F48091E8008E778093E800CB01A7
:1011F00040E0009741F4411106C08091E80082FF71
:1012000030C080E00895209119072115B1F12530F3
:10121000B1F12091E80023FD2EC02091E80022FDCD
:10122000ECCF2091E80020FFE4CF4091F300209123
:10123000F200342F009719F02830310558F041E0C2
:101240002830310509F040E02091E8002E77209306
:10125000E800CFCF41914093F10001972F5F3F4FBE
:10126000E9CF80911907811541F0853041F08091D7
:10127000E80083FFC2CF81E0089582E0089583E013
:101280000895982F9093E900891771F07091EC0000
:101290002091ED005091F00021FD09C09F5F973033
:1012A00089F78093E9000895762F242F50E030913C
:1012B000EB003E7F3093EB003091ED003D7F3093AB
:1012C000ED003091EB0031603093EB007093EC0057
:1012D0002093ED005093F0002091EE0027FDDECF2B
:1012E00008958091A40687FF13C08091E80082FFD3
:1012F00006C08091E8008B778093E8000895809184
:1013000019078111F2CF0895809119078115D9F33A
:101310008091E80080FFF8CF8091E8008E77ECCFD5
:101320002091E4003091E50095E6A9012091EC00C0
:10133000822F817020FF06C08091E80080FF06C0E8
:1013400080E008952091E80022FD1AC080911907DD
:10135000811589F0853089F08091EB0085FD0FC003
:101360002091E4003091E50042175307F9F29150C3
:10137000E1F684E0089582E0089583E0089581E035
:101380000895CF93DF93C8EDD0E088818F7E888366
:10139000E7EDF0E080818160808384E082BF81E0BE
:1013A0008093A30688818E7F8883E2EE108210925C
:1013B000DA00A1EEB0E01C9288818F778883888163
:1013C0008068888388818F7D888319BC1092190773
:1013D0001092A206109218071092A106A0EE8C910E
:1013E0008B7F8C9388818160888342E060E080E01D
:1013F00048DFA1EEB0E08C918E7F8C93E2EEF0E0BE
:10140000808181608083808188608083E0EE80813C
:101410008E7F8083888180618883DF91CF9108955A
:10142000E8EDF0E080818E7F80831092E2001092E0
:10143000DA001092E100A0EEB0E08C9181608C9314
:1014400080818F77808319BCA7ED8C918E7F8C93E0
:1014500080818F7E80831092A30608959FB7F894B1
:101460001092AD069FBF90911907943009F047C0C4
:101470002091E9009091EC002F7090FB992797F94B
:10148000922B23E02093E9002091EB0020FF34C051
:101490002091EE0027FF30C02091AC06211521F0ED
:1014A0002091E80025FF28C01092AC0626E030917C
:1014B000E80035FF14C08093F1008091E80085FDBD
:1014C00027C08091E80080FFFCCF8091E8008E77F4
:1014D0008093E8009F709093E90080E00895309138
:1014E0001907343049F43091EB0035FD05C0215027
:1014F00041F481E08093AC069F709093E9008FEFF8
:101500000895EFE9FFE03197F1F700C00000CFCF79
:101510008FB7F89421E02093AD068FBFDBCF81E039
:101520008093E00080E28093D8001092C9008FE1A0
:101530009EE40197F1F700C00000A7E0B0EBCD01F9
:101540008093EF079093F007A093F107B093F20711
:1015500088E19CE00FB6F894A895809360000FBED8
:1015600090936000FFCF0F931F93CF93DF93EB0116
:101570008A0190911907943059F58093E9008FEF13
:101580009091E80095FD06C095ED9A95F1F7000061
:101590008150B1F78091E80085FF1AC0C1DE81114A
:1015A00012C08091E80085FD06C08091E8008E772A
:1015B0008093E800F3CF88818093F10001501040C0
:1015C00011F02196EECF8091E8008E778093E800AD
:1015D000DF91CF911F910F910895CF93DF93EC018D
:1015E00048E050E0BC0181E0BEDF88E0FE01AEEAE9
:1015F000B6E001900D928A95E1F7DF91CF910895C1
:1016000040E250E0BC0182E0AECF43E050E0BC01DC
:1016100082E0A9CF90911A02913099F0AAE7B6E042
:10162000EFEF90E02C91821759F01196EF3F19F4EB
:10163000211101C0E92F9F5F9630A1F7EF3F41F5DF
:1016400008959091AB0797FFE9CFE82FE695E695CF
:10165000E695803F68F4F0E0E058F94F877021E0AC
:1016600001C0220F8A95EAF78281822B8283089536
:101670009091A20790FFE4CF1F928F938CEA92E0A3
:101680009F938F93D5D80F900F900F900F90089540
:10169000FE2FFF0FFF0BE858F94FE8CF90911A0289
:1016A000913021F49091AB0797FD0CC0EAE7F6E08A
:1016B0009191891302C0DF011E9296E0E038F9078C
:1016C000B9F70895E82FE695E695E695803F70F422
:1016D000F0E0E058F94F9DEF81FD97EF80FF959581
:1016E00082FD929582818923828308959091A20739
:1016F00090FFE7CF1F928F938EE892E09F938F9396
:1017000097D80F900F900F900F900895CF93C82FF8
:101710008091AC0782FB992790F99C17E9F0C0FBF8
:1017200082F98093AC076091AB077091AC0784E0BD
:1017300090E00E94482982E056D98091A20780FF5C
:101740000BC01F92CF9389E396E09F938F9370D83D
:101750000F900F900F900F90CF9108950F931F93BC
:10176000CF93DF9380911A02813009F067C0809196
:10177000AB0787FF63C04DD98093810640E250E0FC
:1017800063E477E080E896E00E94FA28892B09F468
:1017900050C080E2E0E8F6E0A3E4B7E001900D92EB
:1017A0008A95E1F7E0916307F0916407309709F4B7
:1017B00040C00480F581E02D3097D9F186E0809318
:1017C000800680E896E009958091A20782FF31C0EB
:1017D00080FF0DC0809181061F928F9383E096E079
:1017E0009F938F9325D80F900F900F900F90C0E884
:1017F000D6E00DEF15E08091A20780FF0AC08A8134
:101800001F928F931F930F9313D80F900F900F90E9
:101810000F90219686E0CE39D80769F78091A2070C
:1018200080FF07C08BEF95E09F938F9301D80F90B7
:101830000F90DF91CF911F910F910895EAD8809377
:10184000780648E050E065E677E088E796E00E9499
:10185000FA28892B71F388E0E8E7F6E0A5E6B7E01F
:1018600001900D928A95E1F7E0916307F09164078A
:101870003097F9F20280F381E02D3097D1F288E7BA
:1018800096E009958091A20782FFD3CF80FF0EC01A
:10189000809178061F928F9380E296E09F938F93BA
:1018A0000E9418040F900F900F900F9008E716E019
:1018B000CEE7D6E08091A20780FF0EC0F8018281BA
:1018C0001F928F938AE196E09F938F930E94180452
:1018D0000F900F900F900F900F5F1F4FC017D10701
:1018E00049F78091A20780FFA4CF88E196E09CCFC2
:1018F000CF93C82F8115A1F08238A1F4FBDB81FDC5
:101900000FC089E387DE2ADF8FEF97EE23E0815057
:1019100090402040E1F700C0000089E3BFDE1EDFF9
:10192000CF910895833889F4E5DB80FDF9CF83E515
:1019300071DE14DF8FEF91EE24E081509040204063
:10194000E1F700C0000083E5E9CF843889F4D2DBF9
:1019500082FDE6CF87E45EDE01DF8FEF91EE24E0CB
:10196000815090402040E1F700C0000087E4D6CFCE
:101970008450813A68F580911A02813021F4809177
:10198000AB0787FD0EC0EAE7F6E080E896E020812D
:10199000C217D1F031968E179F07C9F78C2F3ADE08
:1019A000BECFEC2FE695E695E695F0E0E058F94FCE
:1019B000828190E04C2F477021E001C0220F4A95B0
:1019C000EAF78223892B51F38C2F68DEC7DEE6CF3E
:1019D0008C2F805E883060F4C77081E001C0880F72
:1019E000CA95EAF7C091A307C82BC093A30797CF66
:1019F0008C2F855A833028F48C2F8452990B89DBE5
:101A00008FCFC85ACB3108F08BCFEC2FF0E0EE0F20
:101A1000FF1FE15CF94F80819181A2DB81CF8115AD
:101A200009F43FC0823849F465DB81FF3AC089E39D
:101A3000F1DD94DE89E332DE91CE833841F45ADB66
:101A400080FF2FC083E5E6DD89DE83E5F4CF8438AF
:101A500041F450DB82FF25C087E4DCDD7FDE87E4D4
:101A6000EACF982F9450913A30F3982F905E9830A7
:101A700058F4982F81E091FD84E090FD880F92FD4D
:101A800082950E943005D8CF982F955A933018F43C
:101A900080E090E03ECB885A8B3118F480E090E0F3
:101AA0005FCB0895811531F09091A307982B909307
:101AB000A30754CE0895811519F00E9430054ECE2B
:101AC00008951092A30780911A02813099F48091B1
:101AD000AB0787FF0FC0E2E8F6E08EE111928A952E
:101AE000E9F780E090E015DB80E090E039DB1092D0
:101AF000AD0734CEEAE7F6E086E0F0CFAAE2B0E048
:101B0000E4E8FDE00C947D2884EA96E0FC0101966F
:101B10002091F100208326E08C3A9207B9F780915A
:101B2000A506893009F457C0C8F4823009F4B2C060
:101B3000833009F482C0813081F18091E80083FF15
:101B4000E6C08091A4069091A5069A3008F0DFC007
:101B5000E92FF0E0E554F64D0C9468288A3009F43A
:101B600089C08B3051F78091A406813231F7809182
:101B7000A8069091A906892B01F78091E800877F3C
:101B80008093E800AEDB81E09091A606911101C040
:101B900080E080931A0295DFD0CF8091A406813A2D
:101BA00061F68091E800877F8093E8008091A80625
:101BB0009091A906892B59F060E080E090E070E0F8
:101BC00006DB8091E8008B778093E800B6CF68E071
:101BD0008EEA96E0F4CF8091A406813209F0ADCF71
:101BE0008091A8069091A906029708F0A6CF80914F
:101BF000E800877F8093E8008091E80082FF18C0AA
:101C00002091F3008091F200922F029731F480919D
:101C1000F100813011F0863021F48091F100809341
:101C200019028091E8008B778093E8005ADB85CF1A
:101C3000809119078111E0CF80CF8091A406813A6D
:101C400009F07BCF8091A8069091A906892B09F015
:101C500074CF8091E800877F8093E8008091E8004E
:101C600080FFFCCF80911A028093F1008091E80000
:101C70008E77DACF8091A406813209F05ECF809111
:101C8000E800877F8093E8002CDB8091A706809393
:101C9000180253CF8091A406813A09F04ECF80916B
:101CA000E800877F8093E8008091E80080FFFCCF08
:101CB00080911802D9CF803889F0823841F580911F
:101CC000A8068F70873018F58093E9008091EB00AB
:101CD00085FB882780F91092E90006C080911807DB
:101CE000880F9091A106892B9091E800977F90939F
:101CF000E8008093F1001092F1008091E8008E7767
:101D000023C0811116C08091A606813009F180910F
:101D1000E80083FF0AC08091E800877F8093E80095
:101D20008091EB0080628093EB00AA96E3E00C9434
:101D30009928823061F78091A606811579F010927A
:101D4000E9008091E800877F8093E800CADADFCF5E
:101D5000933009F080E080931807F1CF8091A806B6
:101D60008F70282F2150263090F68093E900209123
:101D7000EB0020FFE4CF933031F48091EB008062E0
:101D80008093EB00DCCF9091EB0090619093EB009F
:101D900021E001C0220F8A95EAF72093EA00109211
:101DA000EA008091EB008860EBCF8111B0CF809189
:101DB000A6068F77182F8091E3008078812B80937F
:101DC000E3008091E800877F8093E8008ADA8091C1
:101DD000E80080FFFCCF8091E30080688093E300FF
:101DE00083E0111101C082E08093190790CF8058E1
:101DF000823008F08CCF8091A6069091A7068C3D8A
:101E000023E0920789F583E08A838AE289834FB7CA
:101E1000F894DE01139620E03EE051E2E32FF0E07B
:101E200050935700849120FF03C082958F703F5FCD
:101E30008F708A30B8F0895C8D931D922F5F2431AA
:101E400069F74FBF8091E800877F8093E8006AE2DE
:101E500070E0CE010196BBD98091E8008B7780932A
:101E6000E80055CF805DE8CF292F30E023303105E1
:101E700009F44EC078F52130310509F47DC084E5C0
:101E800090E0E4EFF1E02230310509F040CF2091FD
:101E9000E800277F2093E8002091AA063091AB0646
:101EA0008217930708F49C0140E02115310509F0E1
:101EB00068C0411166C08091E80082FDCDCF80915D
:101EC0001907811549F2853039F28091E80083FFC6
:101ED000F2CFC2CF8091A8069091A9062132310598
:101EE00009F43BC02232310509F011CF833091054E
:101EF00008F00DCFFC01EE0FFF1FE356FA4F0190E3
:101F0000F081E02D86569A4FDC018C9190E011C053
:101F1000282F30E0813089F022303105B1F0232BB9
:101F200009F0F5CEE6E7F2E0E4918E2F90E0E6E7E7
:101F3000F2E0009709F4EBCEAACFEAE6F2E0E491F2
:101F40008E2F90E0EAE6F2E0F4CFEAE5F2E0E491E9
:101F50008E2F90E0EAE5F2E0ECCF8330910508F0B7
:101F6000D6CE880F991FFC01ED55FA4F0190F081F4
:101F7000E02D89E090E08BCF82E190E0E8E4F2E0B0
:101F800086CF80911907811509F466CF853009F451
:101F900063CF8091E80083FD5FCF8091E80082FDF0
:101FA0008ACF8091E80080FF80CF4091F30080913C
:101FB000F200942F2115310519F08830910550F069
:101FC00041E0089709F040E08091E8008E77809327
:101FD000E8006BCF44914093F100319621503109D4
:101FE0000196E8CF803809F092CE8091E800877F93
:101FF0008093E8008091A2068093F1007ECE81114B
:1020000086CE8091A606182F823008F080CE80916F
:10201000E800877F8093E8001093A20662D911152B
:10202000B9F084E08093190742E061EC81E029D99E
:1020300042E261EC82E025D942E261EC83E021D901
:1020400080911907843051F482E080931B025FCEA7
:102050008091E30087FDE5CF81E0E4CF81E0F5CF1B
:1020600063EE7EEF80E090E00E94482960E082E02D
:1020700090E00E942E2981E090E08093A6071092C4
:10208000A70761E083E00E942E2960E074E184E00C
:1020900090E00E94482960E087E090E00E942E29AD
:1020A00060E070E0AB018FE090E00E94402960E0CA
:1020B00070E0AB0183E190E00C9440298091160719
:1020C00081113EC087E090E00E942129809385071E
:1020D00082FD15C08091A20780FF08C08AEC92E0C3
:1020E0009F938F930E9418040F900F906091850723
:1020F00067606093850787E090E00E942E29E6EDF7
:10210000F6E080E090E0A0E8BFEB108211828283CD
:102110009383A483B58316821782389627E0E6312D
:10212000F20799F70E9445083E9A82E0809390005A
:102130008AE18093910081E0809316070C944F0808
:102140000895A0E0B0E0E7EAF0E10C9478286B0194
:102150007C019D01A9010E94DC2787FF04C0F7FADA
:10216000F094F7F8F0948091D306811509F454C0E7
:1021700080911607811101C0A1DF06ED16E0C7E0CE
:10218000D0E09601A701F80162AD73AD84AD95ADC5
:102190000E94DC27811139C0CE0123E0880F991FEE
:1021A0002A95E1F78A52994F27E08E30920719F568
:1021B00010920E0710920F07A0E8BFEB10921007C5
:1021C00010921107A0931207B093130710921407EF
:1021D00010921507C1E0C093D0068091D5068150BA
:1021E0008093D506811118C00E944508C093C5018F
:1021F0001092D30611C028E0FC013896DC01019052
:102200000D922A95E1F70896CFCF21970850110932
:10221000CF3FDC0709F0B5CFCDB7DEB7E8E00C94CF
:102220009428EF92FF920F931F93CF93DF93E09147
:10223000D506E11509F446C2E15088E0E802F00154
:102240001124EA52F94F02811381D481C58140E003
:1022500050E09A01C801AD2FBC2FBC01CD010E94F6
:10226000DC2718160CF02EC2E090CE06F090CF06B8
:102270000E94DA088E199F097C0164E670E00E94D2
:102280004128E0918607E93038F4F0E0EB53F64D51
:102290000C9468281092C5068091C406811589F1B6
:1022A0000E94DA08BC0180E090E00E948E2720E0C6
:1022B00030E048E451E40E94262720E030E040EA84
:1022C00051E40E9472240E94E027660F771F660F78
:1022D000771F67557A4FFB016081718182819381FD
:1022E00020E030E040E05FE30E9401259B01AC016B
:1022F000AD2FBC2FB801CD010E945E268B01D82FD7
:10230000C92FAD2FBC2FB801CD01CDB7DEB7E6E0A8
:102310000C9496281092C50681E08093C406BCCF29
:102320001092C50680EDE81687E0F80648F488EEBE
:10233000E81683E0F80650F089E18093C401ACCF41
:102340006451710988E1653B7105B8F38CE0F5CF04
:102350001092C50620E030E040EA52E4C801AD2FFB
:10236000BC2FBC01CD010E94DC2787FD95CF20E06A
:1023700030E040E253E4C801AD2FBC2FBC01CD01D9
:102380000E94DC2787FF2DC00E94EC2868E270E0E5
:102390000E945528CC96BC01872F880F880B982F58
:1023A0000E9490278B01D82FC92F8BE0E816F104EB
:1023B00008F4B2C0C7010B970A9718F01092C40135
:1023C0006BCF2EECA7012403C001259F900D112493
:1023D000865E9B4F6AE070E00E9441286093C401D2
:1023E0005BCF20E030E040EA53E4C801AD2FBC2FC2
:1023F000BC01CD010E94DC2787FF27C00E94EC288A
:1024000068EE73E00E94552888519C4FBC01872FCD
:10241000880F880B982F0E9490278B01D82FC92FE7
:1024200086E0E816F10408F477C0C70106970F9715
:1024300028F62EECA7012403C001259F900D11243E
:10244000865E9B4F6FE070E0C7CF20E030E040E257
:1024500054E4C801AD2FBC2FBC01CD010E94DC2784
:1024600087FF28C00E94EC2860ED77E00E94552885
:102470008854944FBC01872F880F880B982F0E9497
:1024800090278B01D82FC92F80E1E816F10408F4BA
:1024900043C0C7014097059708F090CF2EECA701E5
:1024A0002403C001259F900D1124865E9B4F65E09B
:1024B00070E092CF20E030E040EA54E4C801AD2F54
:1024C000BC2FBC01CD010E94DC2787FFE5CE0E9416
:1024D000EC2860ED77E00E9455288854944FBC01A9
:1024E000872F880F880B982F0E9490278B01D82F59
:1024F000C92F84E2E816F10478F0C70184970F979A
:1025000008F05CCF2EECA7012403C001259F900D9D
:1025100011248A50964F96CF82E30FCF81E08093AB
:10252000C50680EDE81687E0F80650F488EEE81658
:1025300083E0F80650F120E030E040E05FE329C09E
:10254000CB014497853B910508F038CF80E090E0BF
:102550000E948E2720E030E040EA51E40E94C1262C
:1025600020E030E044E353E40E9426279B01AC01C5
:102570000E945E2620E030E048E451E40E945E269E
:102580000E94E5278CE0861BD8CE20E030E040E8B2
:102590005EE3AD2FBC2FB801CD010E945E268B01FA
:1025A000D82FC92FD3CE81E08093C5062AE0269F7D
:1025B000C001279F900D112468EB7BE00E94412809
:1025C0008C5D9540BC0197FF03C0719561957109C1
:1025D00070E080E090E00E9490272EE333EC4EE222
:1025E00059E30E945E2620E030E040EC5EE30E946A
:1025F000C2260E94E527F2CE8E2D837090E062E322
:102600000097A9F064E670E0E0FE60E080E00E94E0
:102610008E2720E030E040E05EE30E945E2620E06E
:1026200030E040E45FE30E94C2260E94E52781E09B
:102630008093C50687E0E822F12CE114F10409F447
:10264000BDCECCCE81E08093C50682E38093C401E9
:102650008CEFE8168AE3F80608F41ECE80E090E0DE
:102660000E948E2720E030E047E153E40E94C1261B
:1026700020E030E04AE754E40E94262720E030E0E2
:1026800048E452E40E945E2620E030E040EA51E453
:102690000E9472240E94E027660F771F660F771F43
:1026A00067557A4FFB012081318142815381C801F6
:1026B000AD2FBC2FBC01CD010E945E268B01D82F0F
:1026C000C92FEACD00E010E0E8011BCEA0E0B0E0A9
:1026D000ECE6F3E10C9473284B015C017A018091E4
:1026E000850780FF7BC080911607811101C0E6DC61
:1026F00040E050E09A01B401C5010E94DC2787FF49
:1027000004C0B7FAB094B7F8B0947090D506872D8E
:102710008150990B6C01EC01CF3FDC0709F048C0F8
:10272000C72DCF5FC93008F477C088E08093D50605
:1027300048E350E06EED76E086ED96E00E940729D2
:10274000C8E081E08093D0068093D306C150DD0BB2
:102750000E94DA08FE0123E0EE0FFF1F2A95E1F741
:10276000EA52F94F8083918382829382A482B58258
:10277000E682F7820E94DA088093CE069093CF0615
:102780008091C501811551F1809171008260809323
:102790007100809190008068809390008091D306B2
:1027A000811519F03EDD0E94ED071092C50116C09B
:1027B0008E0133E0000F111F3A95E1F70A52194FCD
:1027C0009401A501F80162817381848195810E9441
:1027D000DC2781111FC0CC15DD052CF0CDB7DEB78D
:1027E000EDE00C948F28219688E0F8013896D80106
:1027F00001900D928A95E1F70E94DA08F80180872E
:10280000918782869386A486B586E686F786085FDA
:102810001F4FE1CF219780CFC093D50692CFA8E07C
:10282000B0E0E5E1F4E10C947628FE013196DF0199
:1028300088E01D928A95E9F799EFE92E95E0F92E47
:102840008F01BE2EA12EF70181917F018F3F09F4E8
:1028500044C0F894E82FE295EF70F0E021A18F706A
:1028600041E001C0440F8A95EAF7922F942B91A37F
:1028700092A1842F8095892382A3789400C0EDEFE4
:10288000F5E021E030E0C12CD12C41914F3F79F0AF
:10289000A42FA295AF70A05EB0E08C9190E04F7035
:1028A00002C0959587954A95E2F780FF4AC080E07F
:1028B00090E0C82AD92A220F331F86E0E930F807B2
:1028C00021F7F70182918F3F11F00E94BB0780EA48
:1028D0008A95F1F7F801C082D1820E5F1F4F8DEF0C
:1028E000E81685E0F80609F0AECF48E050E06B2D21
:1028F0007A2D89E397E00E94FA28892B21F188E05C
:10290000EB2DFA2DA9E3B7E001900D928A95E1F73E
:1029100081E0809330070E94DA0880932E0790931D
:102920002F0780912C0790912D07892B31F00E9461
:102930004F0810922C0710922D072896EAE00C946D
:102940009228C901B6CF80913007811551F30091CB
:102950002E0710912F070E94DA08801B910B059714
:1029600000F348E050E069E377E081E397E00E94FC
:10297000FA28892B49F088E0E9E3F7E0A1E3B7E022
:1029800001900D928A95E1F710923007CACF0E940C
:10299000D1074FEF5FEF9ACE0F931F93CF93DF9343
:1029A000EC018B018091850780FD07C00E944F08D4
:1029B000DF91CF911F910F9108958091160781119A
:1029C00001C07CDB8091D30681110E944F0881E019
:1029D0008093D4061092CD06C093CB06D093CC063C
:1029E000C8010093C9069093CA061092C8061092B7
:1029F000C6061092C7066C817D818E819F810E94E0
:102A0000E5279B01A3E5B7E00E94882920EF30E08D
:102A100040E050E00E949729688179818A819B81FA
:102A2000A90154DE0E94DA088093220790932307BD
:102A3000E091CB06F091CC068091C6069091C70636
:102A400023E0880F991F2A95E1F7E80FF91F6481A9
:102A50007581868197810E94E5279B01A3E5B7E0F8
:102A60000E94882920EF30E040E050E00E94972942
:102A70002093D1063093D2069BCFCF93DF9321D8FA
:102A80000E9475080E94DA08EC0163E070E08FE5AF
:102A900095E082DF0E94DA088C1B9D0B8A3F91052E
:102AA00028F00E944F08DF91CF9108958FE99FE0B1
:102AB0000197F1F700C00000EDCFDFDF88E19CE077
:102AC0000FB6F894A895809360000FBE90936000B5
:102AD000FFCF6091850761606093850787E090E094
:102AE0000E942E2962E070E086ED91E055CF62E011
:102AF00070E086EC91E050DF8FEF91EE24E08150A2
:102B000090402040E1F700C000000E944F08609113
:102B100085076E7F6093850787E090E00C942E29EF
:102B200081E080939F0768E070E084E891E034CF13
:102B30000E94750810929F0768E070E084E491E0BD
:102B40002BCF81E080939E0768E070E084E091E005
:102B500023CFFF920F931F93CF93DF93C62FD42FD2
:102B6000F22E8115B1F06093A0070E94DA088093DD
:102B7000BA069093BB0681E0C1FD84E0C0FD880FDA
:102B8000C2FD82950E94520DCDB7DEB7E5E00C94F0
:102B900097288091A007681335C00091BA0610915C
:102BA000BB060E94DA08801B910B883C910550F50A
:102BB0001D2F105ECD17A1F0C77001E0802F01C05E
:102BC000880FCA95EAF70E945B0D183048F48D2FE4
:102BD000877001C0000F8A95EAF7802F0E94520D7E
:102BE0008F2D0E94780C8F2D0E940F0D81E0D1FD5A
:102BF00084E0D0FD880FD2FD8295183028F60E941F
:102C00005B0DC2CF81E0C1FD84E0C0FD880FC2FD35
:102C10008295F5CFA3E2B0E0E0E1F6E10C947628EE
:102C20007C01FC0184818115A1F161E0C7010E9452
:102C30006B078C0101348EE71807A9F002348EE788
:102C4000180709F45FC000348EE7180751F1003807
:102C500084E7180709F064C0F7018581811509F43C
:102C600006C137DF07C0F70185818115B1F085EE18
:102C70000E94780C8091AA07877059F0F70185812E
:102C8000811539F08091AC0782FF03C082E00E9479
:102C9000F304A396EAE00C94922885EE0E940F0DAF
:102CA000E9CFF7018581811529F30E944F0866E07D
:102CB00070E08CE492E070DE84E00E94520483E0D5
:102CC0000E94520486E00E94520485E00E9444045F
:102CD00080E090E00E942929833E9E4F09F0C0D9F0
:102CE00084E090E00E9429299093AC07806880934B
:102CF000AB076091AB077091AC0784E090E00E9455
:102D00004829B8CFF7018581811509F4B3CF66E072
:102D100070E08CE192E040DE85E00E945204AACF90
:102D2000013884E7180739F4F7018581811509F422
:102D30009EC0DDDE9FCF023884E7180751F4F7010B
:102D40008581811509F493C08091850780FDF1CFBD
:102D500088CF043984E71807A9F4F7018581811524
:102D600009F485C08091860790E0019669E070E0E3
:102D70000E9455288093860764E070E08CE792E01B
:102D80000BDE78CF053984E7180751F4F701858108
:102D9000811509F46CC08091860790E00896E6CF13
:102DA000003984E7180739F4F7018581811509F4A2
:102DB0005EC0B6DE5FCF013984E7180739F4F7014A
:102DC0008581811509F453C0B3DE54CF023984E7FD
:102DD000180751F4F7018581811509F448C08091E5
:102DE0009F078111F1CFE5CF011581E7180731F475
:102DF000F70185818115D9F1A4DE3CCF013081E74F
:102E0000180759F4F7018581811589F110929E0701
:102E100068E070E08CE992E0B3CF023081E71807F8
:102E200049F4F7018581811511F180919E07811187
:102E3000EDCFE2CF033984E71807C9F4F7018581A4
:102E40008115A9F00E94750820917C0330E023953C
:102E5000237030E020937C0348E2429FC001439FEF
:102E6000900D112465E070E084529D4F89CF409110
:102E70009F07411105C080919E07811509F4E3C0A9
:102E8000F7015581511509F44BC0003E110561F45D
:102E90000E94750881E080939D0710929C07109214
:102EA0009B0710929A07E6CE023E110571F40E942C
:102EB000750880919D07811519F081E080939C072A
:102EC00010929D0710929B07D5CE033E110591F4F9
:102ED00080919C07811521F10E94750810929D0731
:102EE00081E080939B0710929907109297071092A8
:102EF0009807C0CE0235110551F480917D03909161
:102F00007E030A9780937D0390937E03B3CE0135B1
:102F1000110531F480917D0390917E030A96F2CFE2
:102F200080917C03813070F4F701218184E090E08E
:102F3000821B282F9081905F892F9CE0299F800D14
:102F400011240EC009F048C0F701818124E030E06F
:102F5000281B822F880F880F820F90819D5C890F1C
:102F6000D82E511509F467C0411511F08D2D0FDDD4
:102F700080919D07811551F080919A07E82FF0E02C
:102F8000E957F84FD0828F5F80939A07C801835228
:102F90009245029708F06ECEF7018581811509F4FC
:102FA00038C41092A007980130572332310508F039
:102FB0003EC484E090E00E9429298093AB0790935F
:102FC000AC07F801E150F047E232F10508F064C0C7
:102FD000E253F64D0C946828823059F4F7012181B0
:102FE00084E090E0821B282F90819D5C892F97E0E0
:102FF000A5CF8330E9F483E2E7E7F5E09E012F5F98
:103000003F4FD90101900D928A95E1F7F701808138
:10301000FE01E80FF11DD70111968C9124E030E0FC
:10302000281B80859CE0299F800D1124875F98CF05
:103030009CE0D92E96CF411509F4A8CF8D2D0E9482
:10304000D1077FD8A3CFF801E851FC47E730F1055D
:1030500008F0A2CFE051F64D0C94682826E241EE2C
:1030600061EEF701858175DD05CE27E245EE65EE5F
:10307000F8CF26E241EE60EEF4CF27E245EE64EEB3
:10308000F0CF26E241EE62EEECCF27E245EE66EEAF
:10309000E8CF28E241E0EBCF8091AB0781608093DD
:1030A000AB076091AB077091AC0784E090E00E94A1
:1030B00048290E94610DDECD8091AC078860809325
:1030C000AC07EFCF8091AB078260E9CF8091AB076F
:1030D0008460E5CF8091AB078860E1CF8091AC0739
:1030E0008160EDCF8091AC078260E9CF8091AB0722
:1030F0008061D5CF8091AB078062D1CF8091AB0743
:103100008064CDCF0E94610D8091AB078068C7CFEE
:103110008091AB078C608093AB0764E070E08FEB2D
:1031200093E03ADCBECF8091AC0783608093AC071C
:1031300064E070E08FE993E0F4CF8091AB078E7F7D
:10314000AECF8091AC07877FBACF8091AB078D7FE0
:10315000A6CF8091AB078B7FA2CF8091AB07877FF3
:103160009ECF8091AC078E7FAACF8091AC078D7FD8
:10317000A6CF8091AB078F7E92CF8091AB078F7DDA
:103180008ECF8091AB078F7B8ACF0E94610D80919B
:10319000AB078F7784CF8091AB07837F8093AB079A
:1031A00062E070E08FE893E0BCCF8091AC078C7F49
:1031B0008093AC0762E070E08FE793E0B2CF90912C
:1031C000AB07892F8B7F92FF8460877F92FF886097
:1031D0008093AB0783FFE4CFA0CF8091AC07982FFB
:1031E000909590FB80F990FB81F98093AC0781FF6B
:1031F000E1CF9ECF9091AB07892F8F7B96FF8064A4
:103200004ECF0E94610D9091AB07892F97FB87F9F4
:10321000805845CF61E08EE090E00E942E2941CF9A
:1032200060E0F9CF9091AB07892F8F7E94FF80618A
:1032300036CF9091AB07892F8E7F90FF81602FCF83
:103240009091AC07892F877F93FF886038CF89E200
:1032500000C389E2E9C29801205E3245203231057F
:10326000F0F4811132C0802F8F71D82E01E010E070
:1032700002C0000F111F8A95E2F7602F83E090E0F3
:103280000E942E2920E8D29EC001112460E170E046
:1032900081529C4F81DBC8010E943104EBCC811527
:1032A00011F10B359CE7190709F48BC00C359CE72D
:1032B000190709F47BC00A359CE7190709F47FC098
:1032C00002309CE7190709F48AC003309CE719070C
:1032D00008F079C001159CE7190709F47DC0013099
:1032E0001C4709F478C0F70100811181811509F4A8
:1032F0008CC0C8010E943707D82E682FC8010E94D1
:103300006204B8018D2D0E9438050E944B06182FCB
:10331000A92EF701B580D680D2948FE0D822809173
:10332000AA07877001F1CB2CB114F1F0892F807FAF
:10333000803461F0812F805E8830A8F0892F807EF4
:10334000803221F4123078F0D11469F08091AC070A
:1033500082FF09C082E00E94F3048091AA0787706F
:10336000CC24C3948111C12C8A2D82958F70883012
:1033700009F43AC108F068C0843008F04BC08230CC
:1033800008F473C00A2D0F708A2D807F803211F0EF
:103390000295007F113008F4A1C009F4EAC0B1140D
:1033A00009F4F5C0D11409F4B7C077C08091AC0717
:1033B000002482FF0394802D0E94860B5BCC81E069
:1033C000FBCF80E0F9CF09F08ECF6FEF7FEF80E089
:1033D00090E00E94482971DB50DB0E948F0A909197
:1033E000A207892F8E7F90FF81608093A20780FFC4
:1033F00009C080E696E09F938F930E9418040F9077
:103400000F9038CC8EE496E0F6CFC8010E94970466
:10341000D82E77CF09F4CCC0C11409F41EC1809115
:10342000AA0780FD1AC1F7011582869586958695B3
:103430000E944404C701EEDB8091AA078695869519
:1034400086950E94520409C1893009F461C18A5FDE
:103450008F70823008F7123F09F06CC18A2D8F718E
:10346000B11065C10E944404F6C00A2D0F708A2D68
:10347000803110F00295007FB114B9F0011569F0A8
:10348000812F805E883010F0111109C08091A30750
:10349000802B8093A3070E94AE0B812F2FC08091B9
:1034A000AD07802B8093AD07F6CF812F0E940F0DC3
:1034B000011509F4B1CF812F805E883010F0111111
:1034C00004C0802F0E94300506C000958091AD0792
:1034D00080238093AD070E94AE0B9ECF8091AC07F6
:1034E00082FD16C0B11469F0011539F08091A3076F
:1034F000802B8093A3070E94AE0B80E00E94780C83
:103500008BCF80E00E940F0D011509F485CFD9CF34
:10351000B114A9F0D11004C0802F0E94520D7CCFAD
:103520008D2D813009F078CF8091A407902F9823BA
:10353000091709F471CF802B8093A4076DCFD110A8
:103540006BCF802F0E945B0D9091A407802F892361
:1035500029F0802F809589238093A4078091A50767
:10356000902F982309F458CF009508230093A507BE
:1035700053CF8D2DB11421F0863008F04DCFCCCF34
:10358000853008F049CF802F0E945B0D45CFD114C4
:10359000D1F3193349F48FEF97EE23E08150904037
:1035A0002040E1F700C00000812F0E940F0D34CFB2
:1035B0008A2D869586958370813060F009F02CCF36
:1035C000812F9A2D9370B11002C080E090E00E948C
:1035D000B00822CF812F9A2D9370B11002C080E0E5
:1035E00090E00E94890818CF8A2D837009F048C0A6
:1035F000B11031C0412F429546954770440F440F9A
:10360000212F2F7030E0042E02C0220F331F0A94A6
:10361000E2F780E090E014FF09C08FE090E002C084
:10362000880F991F4A95E2F7809590954A2D469507
:1036300046954370642F4230D1F04330A9F0409159
:10364000A6075091A707613069F0822B932B842342
:1036500095230E9431040E947A0860E0C7010E940D
:103660006B0717CB242B352B822B932BF2CF822B7E
:10367000932B2091A6073091A70782279327E9CFA4
:10368000B114A1F1A0FEE7CF412F429546954770B6
:10369000440F440F212F2F7030E0042E02C0220F60
:1036A000331F0A94E2F780E090E014FF09C08FE036
:1036B00090E002C0880F991F4A95E2F78095909597
:1036C0004A2D469546954370642F4230C1F04330F1
:1036D00099F04091A8075091A907613059F0822BC9
:1036E000932B842395230E943604B5CF823008F4AF
:1036F000B2CFCACF242B352B822B932BF4CF822B26
:10370000932B2091A8073091A90782279327EBCF0D
:103710008A2D8F70082FB11431F00E944404812F3C
:103720000E94520D98CF812F0E945B0D802F0E9426
:10373000520491CF70F4103FC9F0113F91F0B114D1
:1037400009F453C0D11409F44DC0812F0E94780CA4
:1037500082CF133FF1F0143F91F79091AC0792FDA7
:1037600028C08A2D8F71B11411F37CCE8D2DB11428
:1037700071F0853008F06FCF8A2D8F71282F81E08E
:1037800090E002C0880F991F2A95E2F7BACF8630E1
:10379000F1CF80E090E0B11409F4A5CF8A2D8F71AC
:1037A000282F81E090E002C0880F991F2A95E2F748
:1037B0009ACFB11461F08A2D8F7192FF53CE982F5A
:1037C000990F990F990F93609093AA074BCE81E0C0
:1037D0000E94F3048D2D823008F43DCF82E00E94D8
:1037E000F30439CF8A2D8F713DCED11479F019337E
:1037F00049F48FEF97EE23E0815090402040E1F7AD
:1038000000C00000812F0E940F0D25CF8A2D8F71DF
:103810008ECF06319CE7190709F01DCD8091A107D5
:10382000811509F416CD85E30E944E0B14C00631B4
:103830009CE7190709F00FCD8091A3078A7A91E0E0
:10384000811101C090E09093A107811509F4FFCC8C
:1038500085E30E940A0B0E94AE0B0CCA8091EE0712
:10386000803170F48091ED07811551F0E091AF0740
:103870002091AE073091E9074091E8072E1301C06F
:103880000895BF0187E0E89FF0011124DF01A055F2
:10389000B84F14968C911497811551F111968C9113
:1038A0001197831325C08C91841322C015968C9197
:1038B000159781111DC012968D919D91A091EA07D7
:1038C000B091EB078A1B9B0B883C910588F4809193
:1038D000EE078F7080618093EE07EA54F84F808185
:1038E0008F708061808388EE97E094D90C94E9040E
:1038F0006F5F7F4FFB01E770C1CFADE0B0E0E3E861
:10390000FCE10C9473288C0186E0F801DE01189626
:1039100001900D928A95E1F7F801F580C48088EE58
:10392000882E87E0982E7090EC0771101FC0C1148C
:10393000D1F0F11409F415C1C8010E949007811556
:1039400009F40FC187E0F801D40101900D928A9526
:10395000E1F78C2D813031F48091E8079091E907EF
:103960000E9486077BDFFF24F39453C0E080A2808F
:10397000B380D090ED078091EA079091EB07950115
:10398000281B390BD11409F4B5C0283C310508F0C7
:103990008DC0C11441F39091E907C1808091EE0779
:1039A000803108F056C0C91213C09091E8079E11EB
:1039B0000FC0F11048C08F7080618093EE0788EED1
:1039C00097E028D98091EE07F8018683F12C21C079
:1039D000F11039C040E06C2D8E2D0E94CA0440E0E9
:1039E0006C2D8E2D0E94CA04F82E8111EFCF888590
:1039F00099850E948607292F22952F70903470F4A4
:103A00009F70223098F09115A9F0F80196819031BD
:103A100088F48F2D2D96EDE00C948F282A5F2F705F
:103A2000223060F0C801F6D8FD2CF3CF911511F0CB
:103A3000811579F3805E883060F3F4CF803F48F3DE
:103A4000815F8330F9CF8091EE0781608093EE072C
:103A5000BDCFC91207C09091E8079E1103C0F114B1
:103A600009F469C0C8010E949007811509F479C062
:103A7000F11409F476C08091EE07803270F0209145
:103A8000E8073091E90729833A83AB82BC827D82C3
:103A90001E828F83CE010196BDD887E0F801A8EE83
:103AA000B7E001900D928A95E1F75CCF8091EE0727
:103AB000803148F488EE97E0ADD8F40187E01192A8
:103AC0008A95E9F783CFC11409F44DCF2091E90716
:103AD00091812913C7CF9091E8079E11C3CFF110B0
:103AE000C1CF8683C80196D8F40187E011928A95E8
:103AF000E9F739CF283C310500F7C11409F433CF79
:103B0000F11479F19091E9078181981320C0809197
:103B1000E8078E111CC08091EE0780FD0FC0803138
:103B200068F08683807F803F39F08681982F907F70
:103B3000905F8F70892B8683C8016CD887E0F8016D
:103B4000A8EEB7E001900D928A95E1F70CCFC8017D
:103B50000E9490078111A1CF8091EE078160809330
:103B6000EE07C80157D8FFCEABE1B0E0EAEBFDE1CC
:103B70000C947C284E8B5F8B688F798F8A8F192FDE
:103B80009B8F91111092AD071D8A86E0FE017696FB
:103B9000DE011F9601900D928A95E1F70A8D0115BD
:103BA00061F00B8B1C8B61E0CE010F960E946B07BE
:103BB00061E0CE010F960E946B070B8B1C8B87E098
:103BC000FE013F96DE01189601900D928A95E1F76D
:103BD000CE01089692DE81112EC02091AE07309161
:103BE000AF0787E0AE01485F5F4FFA0147505109C8
:103BF000DA0101900D928A95E1F78C858115D9F053
:103C0000822F90E08395877090E0AC013417150601
:103C1000E1F097E0929FD0011124A055B84F9E018A
:103C20002F5F3F4FF90101900D929A95E1F7409374
:103C3000AE070E94E9048091AF079091AE07891307
:103C400011C06B96E4E00C9498280E94610D1092CC
:103C5000AE071092AF07E8EEF7E087E011928A9581
:103C6000E9F7E9CF27E0829FC00111248055984FE2
:103C700044DE811531F38091AF079091B007019632
:103C800087708093AF07D7CFA6E0B0E0EAE4FEE10B
:103C90000C947C280E94DA088C0180914107909155
:103CA00042078017910771F019821A820E94DA0880
:103CB000BC0149815A8180E090E056DF00934107C2
:103CC000109342072696E4E00C94982800D000D088
:103CD00000D0CDB7DEB785B7806885BF85B780686F
:103CE00085BF84B7877F84BF0FB6F894A89580916D
:103CF0006000886180936000109260000FBE80E8D1
:103D000090E00FB6F89480936100909361000FBE2D
:103D100081E080931B028EE29AE080937606909376
:103D200077060E94100A0E94C1098091E200846017
:103D30008093E200789480911907811599F0809121
:103D4000E9001091EC008F7010FB112717F9182B68
:103D50001092E9008091E80083FD0E947E0D1F70A3
:103D60001093E90082E084BD93E095BD9AEF97BD82
:103D700080936E0069EFE62E65E0F62E0DEF15E0FC
:103D8000F70181917F018F3F11F00E94BB070E1553
:103D90001F05B1F75DEFE52E55E0F52E09E016E0C1
:103DA000F70181917F018F3F11F00E94BB070E1533
:103DB0001F05B1F7E1E3F7E088E011928A95E9F792
:103DC000E9E3F7E088E011928A95E9F76E9A769A2E
:103DD00080E090E00E942929833E9E4F11F00E94CE
:103DE000301082E090E00E9421298093A20784E0B5
:103DF00090E00E9429298093AB079093AC070E9422
:103E00000F148FEF96E721E0815090402040E1F7BA
:103E100000C000000E940F148091310780FF08C08D
:103E20006FEF7FEF80E090E00E9448290E948F0AA8
:103E300083E090E00E94212990E00E9431040E94DA
:103E40005E1086EE91E08093630790936407809103
:103E50001907853009F052C08091A20780FF08C081
:103E60008EE093E09F938F930E9418040F900F9021
:103E700000E110E442E1F42E38C08091190784304B
:103E800029F10E944F081092170788E190E00FB6C1
:103E9000F894A895809360000FBE1093600083B7DC
:103EA000817F846083BF83B7816083BF7894889566
:103EB00083B78E7F83BF0FB6F894A895809160007A
:103EC000886180936000109260000FBE0E940F1402
:103ED000E1E3F7E080819181892B09F05AC13296A4
:103EE00089E397E08E179F07A9F78091190785301E
:103EF00009F4C3CF0E94610D0E947A080E940F143A
:103F00003AE1E32E37E0F32E81E397E03C01FC0138
:103F1000D7012D913D918081918142E257E04A176E
:103F20005B0709F492C032962817390791F3809104
:103F3000A20781FF44C084E393E09F938F930E9484
:103F400018040F900F9001E317E0A12CB12C24E28C
:103F5000822E23E0922EBF92AF928FE293E09F9346
:103F60008F930E9418048CE293E09F938F930E949A
:103F70001804F801808151800E5F1F4F0E942104B8
:103F8000C82E852D0E942104CF928F9386E293E064
:103F90009F938F930E9418049F928F920E941804FF
:103FA0008FEFA81AB80A8DB79EB70C960FB6F89483
:103FB0009EBF0FBE8DBF84E0A816B10461F6912CA0
:103FC000F301019111913F01F701C190D1907F015F
:103FD000C016D10651F1C026D126812C91E0A92E20
:103FE000B12CC6018A219B21892BB1F089829A824A
:103FF0000E94DA088B839C8381E08D8391E0980195
:104000002A213B21232B09F490E09E8349815A8188
:104010006B817C818D81A8DD8394AA0CBB1C882DCB
:104020008C30F9F6F701129302939394892D843022
:1040300039F68FB7F894409127075091280760917F
:10404000290770912A078FBF05C02817390709F083
:104050006ECF1ADE8091260781110DC000912407D2
:10406000109125070115110509F50E94DA088093C2
:1040700024079093250780919B078115E9F1009112
:104080009707109198070115110559F50E94DA0854
:10409000809397079093980780919907282F30E095
:1040A000811509F450C0C901019751C00E94DA0876
:1040B000801B910B8D329140F0F28091850780FF3B
:1040C00006C065E070E080EF91E00E94CC140E9491
:1040D000DA08809322079093230781E080932607D4
:1040E000CACF0E94DA08801B910B20917D0330918A
:1040F0007E032817390750F20E947A0890912B0707
:10410000891709F4A4CE80932B079FB7F8944091A8
:104110002707509128076091290770912A079FBFB0
:104120009091A2079570953009F091CE1F928F93D0
:104130008BE493E09F938F930E9418040F900F904D
:104140000F900F9084CE80919A078150990B4091E7
:104150009F07411599F02957384FF9011081895768
:10416000984FFC0180810E94D1070E94A11080918C
:104170009F07811519F0812F0E94C714809199071C
:1041800090E0019660919A0770E08FD7809399072D
:10419000B3CF80911807811509F4A7CE09BDF9BCEA
:1041A00009B400FEFDCF8091D8008F7D8093D800A8
:1041B0008091E00082608093E0008091E00081FDCA
:1041C000FCCF0E94610D91CE1F920F920FB60F92FD
:1041D00011242F923F925F926F927F928F929F92C3
:1041E000AF92BF92CF92DF92EF92FF920F931F9305
:1041F0002F933F934F935F936F937F938F939F93EF
:10420000AF93BF93CF93DF93EF93FF938091BC065F
:104210009091BD06A091BE06B091BF060196A11D6A
:10422000B11D8093BC069093BD06A093BE06B093CB
:10423000BF066091BC067091BD068091BE0690914C
:10424000BF066CD66B017C0120E030E040E85CE307
:104250006091C0067091C1068091C2069091C3061C
:104260002DD59B01AC01B601C701A6D687FDB5C00F
:104270001092BC061092BD061092BE061092BF06A8
:104280005090D4068091D306811103C0511409F4D3
:1042900099C00E94DA08EC01511020C0512C809185
:1042A000D306C52D811589F0C091C406C11103C084
:1042B000C091C506C52906ED16E0E12CF12C8091D0
:1042C000D506E816F1040CF402C18091D0068115E0
:1042D00009F479C01092D006C82F75C0C09022078B
:1042E000D09023070E94DA088090D1069090D206E1
:1042F0008C199D098815990588F20E94DA081C011D
:10430000C0932207D0932307A090C606B090C7069B
:10431000E5012196C093C606D093C7060E94DA082D
:104320008093CE069093CF066090C9067090CA061F
:10433000C615D70558F08091C806811509F440C00C
:104340001092C6061092C706C0E0D0E00091CB06DE
:104350001091CC068091CD067E0153E0EE0CFF1C3F
:104360005A95E1F781115BC0F50143E0EE0FFF1FA5
:104370004A95E1F7E00FF11FD801AE0DBF1D2D9159
:104380003D914D915D91608171818281938114D6BF
:10439000811145C081E08093CD064FE050E080E080
:1043A00090E0BC010E946613A092C606B092C706B8
:1043B0003FE0E32EF12CE092D106F092D2066FCFCF
:1043C0000E944F08C0E08091D30681119EC0809169
:1043D000D40681119AC00E944508FF91EF91DF91A8
:1043E000CF91BF91AF919F918F917F916F915F918D
:1043F0004F913F912F911F910F91FF90EF90DF9080
:10440000CF90BF90AF909F908F907F906F905F9074
:104410003F902F900F900FBE0F901F901895C80CD3
:10442000D91CC1018C199D096C011092CD06F701B0
:10443000E00FF11F6481758186819781C6D59B014C
:10444000A3E5B7E065D720EF30E040E050E06FD75C
:1044500081E0681A71082C153D0518F4C615D705BA
:10446000E0F0C093C606D093C70691E0E92EF12C88
:10447000C216D30618F42C193D09790183E0CC0F3C
:10448000DD1F8A95E1F7C00FD11F688179818A818C
:104490009B81A7010E9466138ECFC21AD30A219670
:1044A000FE0123E0EE0FFF1F2A95E1F7E00FF11F59
:1044B000648175818681978188D59B01A3E5B7E0EA
:1044C00027D720EF30E040E050E031D7C4CFF801EB
:1044D000C680D780C60101978E3F9F4F80F4A08091
:1044E000B1800E94DA088A199B098C159D0538F065
:1044F000F80162817381848195810E94A1108FEF00
:10450000E81AF80A085F1F4FDACEC11509F465CF23
:104510000E9411110E94ED0760CF1F921FB61F92DB
:1045200011248F939F93AF93BF93809117078111AD
:1045300013C08091270790912807A0912907B09177
:104540002A074196A11DB11D809327079093280744
:10455000A0932907B0932A07BF91AF919F918F91A4
:104560001F901FBE1F90189578941F921FB61F9220
:1045700011248F939F93AF93BF93809127079091BE
:104580002807A0912907B0912A070196A11DB11D06
:104590008093270790932807A0932907B0932A07B1
:1045A000BF91AF919F918F911F901FBE1F90189543
:1045B0001F920F920FB60F9211242F933F934F9398
:1045C0005F936F937F938F939F93AF93BF93EF937B
:1045D000FF938091E10082FF14C08091E20082FF8E
:1045E00010C08091E1008B7F8093E1002091A006B4
:1045F0002F5F822F62E339D5911509F4DCC0209337
:10460000A0068091DA0080FF2CC08091D80080FF46
:1046100028C08091DA008E7F8093DA008091D900E3
:1046200080FFFEC080E189BD82E189BD09B400FE42
:10463000FDCF81E0809319078AE792E09F938F93E3
:104640000E9418048091A3060F900F90811109C059
:104650000E94100A0E94C1098091E2008460809348
:10466000E2008091E10080FF22C08091E20080FFA3
:104670001EC08091E2008E7F8093E2008091E20074
:1046800080618093E2008091D80080628093D8009E
:1046900019BC85E08093190782E892E09F938F937D
:1046A0000E94180483E080931B020F900F9080916A
:1046B000E10084FF37C08091E20084FF33C080E1D5
:1046C00089BD82E189BD09B400FEFDCF8091D8008B
:1046D0008F7D8093D8008091E1008F7E8093E100F0
:1046E0008091E2008F7E8093E2008091E200816001
:1046F0008093E2008091A206811509F49FC084E0B6
:104700008093190786E892E09F938F930E94180484
:10471000809119070F900F90843009F097C082E0C4
:1047200080931B028091E10083FF34C08091E200FE
:1047300083FF30C08091E100877F8093E10082E0B9
:10474000809319071092A2068091E1008E7F8093DA
:10475000E1008091E2008E7F8093E2008091E20090
:1047600080618093E20042E060E080E00E944109C5
:104770008091F00088608093F0008AE892E09F9337
:104780008F930E94180481E080931B0280931A0289
:104790000F900F90FF91EF91BF91AF919F918F91EB
:1047A0007F916F915F914F913F912F910F900FBE2D
:1047B0000F901F9018951092A0068091AD0681155C
:1047C00009F41FCF809119078430B9F49091E90062
:1047D0008091EC009F7080FB882787F9892B93E0FC
:1047E0009093E9009091EB0090FF04C09091EE004F
:1047F00097FD08C08F708093E9001092AD0601CF3D
:104800001092F1009091E80095FDFACF9091E800A8
:1048100090FFF0CF9091E8009E779093E800EACF68
:1048200019BC109219078EE792E09F938F930E9414
:1048300018041092A3060F900F9013CF8091E300FD
:1048400087FF02C083E05CCF81E05ACF81E068CF70
:104850001F920F920FB60F9211241F932F933F9325
:104860004F935F936F937F938F939F93AF93BF9378
:10487000CF93DF93EF93FF93E9EEF0E08081109107
:10488000EC008F7010FB112717F9182B1082C0EF66
:10489000D0E08881877F888378940E947E0DE9EE3E
:1048A000F0E010828881886088831F701083FF91F8
:1048B000EF91DF91CF91BF91AF919F918F917F91B8
:1048C0006F915F914F913F912F911F910F900FBE6C
:1048D0000F901F9018955ED018F011F062D038F448
:1048E00056C089C0E92F64D0B0F35523C9F3E7FB64
:1048F0006217730784079507A8F199F3E92FFF273B
:1049000088232AF03197660F771F881FDAF7952FD3
:104910005527442332F091505040220F331F441F3B
:10492000D2F7BB27E91BF50B621B730B840BB10994
:10493000C1F222F4620F731F841FB11D31972AF058
:10494000660F771F881FBB1FEFCF915050405AF062
:1049500041F0882332F0660F771F881F9150504036
:10496000C1F7939506C08695779567959F5FD9F7B0
:10497000F8CF9F3F31F0915020F487957795679558
:10498000B795880F911D9695879597F908959FEF94
:1049900080EC089500240A941616170618060906D6
:1049A000089500240A9412161306140605060895A5
:1049B00057FD9058440F551F59F05F3F71F04795D0
:1049C000880F97FB991F61F09F3F79F087950895B5
:1049D000121613061406551FF2CF4695F1DF08C0D4
:1049E000161617061806991FF1CF869571056105F1
:1049F00008940895E894BB2766277727CB0197F999
:104A00000895FA01EE0FFF1F30962105310599F147
:104A10006115710561F48038BFE39B0749F1689423
:104A20009038810561F08038BFEF9B0741F09923F2
:104A300042F5FF3FE1053105210511F1E8940894A5
:104A4000E795D901AA2329F4AB2FBE2FF85FD0F345
:104A500010C0FF5F70F4A695E0F7F73950F019F039
:104A6000FF3A38F49F779F930CD00F9007FC905833
:104A700008953EF08CCF60E070E080E89FE30895F9
:104A80004FE79F775F934F933F932F93A4D02F913E
:104A90003F914F915F9112D105C019F40EF02EC0D5
:104AA000A9CF75CF8DDFC8F39638C0F707F80F92FE
:104AB000E8942BE33AEA48EB5FE70ED10F920F92AE
:104AC0000F924DB75EB70F92C6D0ECEAF0E01CD063
:104AD0004F915F91EF91FF91E595EE1FFF1F49F018
:104AE000FE57E0684427EE0F441FFA95E1F7419521
:104AF000550B38D00F9007FE2CC0089597F99F678B
:104B000080E870E060E00895DF93CF931F930F93E8
:104B1000FF92EF92DF927B018C01689405C0DA2E40
:104B2000EF01D8D0FE01E894A591259135914591EA
:104B30005591AEF3EF0137D1FE019701A801DA9448
:104B400079F7DF90EF90FF900F911F91CF91DF9158
:104B500008959B01AC0160E070E080E89FE376C1BE
:104B6000CDCF07CF2DDFE8F39923D9F3940F511D53
:104B7000BBF39150504094F059F0882332F0660F07
:104B8000771F881F91505040C1F79E3F510544F751
:104B9000880F911D9695879597F908955F3FACF022
:104BA000983E9CF0BB27869577956795B79508F456
:104BB000B1609395C1F7BB0F58F711F460FFE8CFD0
:104BC0006F5F7F4F8F4F9F4FE3CF15CF0EF0D1CE4A
:104BD000DECE689493CFF4DEC8F39923D1F3C6F305
:104BE000DF93CF931F930F93FF92C92FDD27882365
:104BF0002AF02197660F771F881FDAF720E030E050
:104C000040E85FEB9FE3883920F0803E30F021964A
:104C10008F77B8D0E4EDF0E003C0B4D0E1E0F1E08C
:104C200073DF8B01BE01EC01FB2E6F577109759587
:104C3000771F880B990B74D128E132E741E35FE3DA
:104C400049D0AF2D9801AE01FF900F911F91CF91E8
:104C5000DF91A9D0A0C1FA01DC01AA0FBB1F9B0103
:104C6000AC01BF5728F422273327442750781FC0B0
:104C7000B75188F4AB2F0024469537952795011C32
:104C8000A395D2F3002069F0220F331F441FB39580
:104C9000DAF30DD076C061307105A0E88A07B94615
:104CA00030F49B01AC0166277727882790783096EF
:104CB00021F0208331834283538308950BD06BC14D
:104CC00069DE28F06EDE18F0952309F017CF5FCE6D
:104CD000112491CE6DDEA0F3959FD1F3950F50E096
:104CE000551F629FF001729FBB27F00DB11D639F9E
:104CF000AA27F00DB11DAA1F649F6627B00DA11D44
:104D0000661F829F2227B00DA11D621F739FB00DE9
:104D1000A11D621F839FA00D611D221F749F332759
:104D2000A00D611D231F849F600D211D822F762FF2
:104D30006A2F11249F5750408AF0E1F088234AF0EF
:104D4000EE0FFF1FBB1F661F771F881F915050403B
:104D5000A9F79E3F510570F0D1CE4DCE5F3FECF3E9
:104D6000983EDCF3869577956795B795F795E79527
:104D70009F5FC1F7FE2B880F911D9695879597F938
:104D800008955058BB27AA270ED005C103DE30F086
:104D900008DE20F031F49F3F11F41EF4F8CD0EF43C
:104DA000E095E7FBABCEE92F03DE80F3BA1762078D
:104DB00073078407950718F071F49EF51BCE0EF467
:104DC000E0950B2EBA2FA02D0B01B90190010C011B
:104DD000CA01A0011124FF27591B99F0593F50F433
:104DE000503E68F11A16F040A22F232F342F44278B
:104DF000585FF3CF469537952795A795F040539583
:104E0000C9F77EF41F16BA0B620B730B840BBAF052
:104E10009150A1F0FF0FBB1F661F771F881FC2F7BD
:104E20000EC0BA0F621F731F841F48F487957795D1
:104E30006795B795F7959E3F08F0B3CF9395880F88
:104E400008F09927EE0F9795879508950CD0A3C089
:104E5000A8DD40F09FDD30F021F45F3F19F04ECE29
:104E60005111C9CD94CDA4DD98F39923C9F35523ED
:104E7000B1F3951B550BBB27AA276217730784074D
:104E800038F09F5F5F4F220F331F441FAA1FA9F303
:104E900033D00E2E3AF0E0E830D091505040E695F5
:104EA000001CCAF729D0FE2F27D0660F771F881F56
:104EB000BB1F261737074807AB07B0E809F0BB0B45
:104EC000802DBF01FF2793585F4F2AF09E3F510569
:104ED00068F014CE90CD5F3FECF3983EDCF38695FE
:104EE00077956795B795F7959F5FC9F7880F911DDF
:104EF0009695879597F90895E1E0660F771F881FCB
:104F0000BB1F621773078407BA0720F0621B730B7D
:104F1000840BBA0BEE1F88F7E0950895E89409C05A
:104F200097FB3EF490958095709561957F4F8F4FDC
:104F30009F4F9923A9F0F92F96E9BB279395F695F2
:104F4000879577956795B795F111F8CFFAF4BB0F70
:104F500011F460FF1BC06F5F7F4F8F4F9F4F16C0D4
:104F6000882311F096E911C0772321F09EE8872F5E
:104F7000762F05C0662371F096E8862F70E060E01A
:104F80002AF09A95660F771F881FDAF7880F969593
:104F9000879597F90895092E0394000C11F488233E
:104FA00052F0BB0F40F4BF2B11F460FF04C06F5FE1
:104FB0007F4F8F4F9F4F089534D008F481E00895BC
:104FC00004D06894B11117CD0895FADC88F09F578A
:104FD00090F0B92F9927B751A0F0D1F0660F771F45
:104FE000881F991F1AF0BA95C9F712C0B13081F025
:104FF00001DDB1E00895FECC672F782F8827B85FD8
:1050000039F0B93FCCF3869577956795B395D9F785
:105010003EF490958095709561957F4F8F4F9F4F8F
:105020000895990F0008550FAA0BE0E8FEEF161639
:105030001706E807F907C0F012161306E407F5078C
:1050400098F0621B730B840B950B39F40A2661F000
:10505000232B242B252B21F408950A2609F4A140A3
:10506000A6958FEF811D811D0895992778E0880FFF
:10507000991F961708F0961B881F7A95C9F7809597
:105080000895AA1BBB1B51E107C0AA1FBB1FA6178F
:10509000B70710F0A61BB70B881F991F5A95A9F7E1
:1050A00080959095BC01CD01089597FB072E16F4CD
:1050B000009406D077FD08D0E4DF07FC05D03EF46D
:1050C000909581959F4F0895709561957F4F0895B4
:1050D000EE0FFF1F0590F491E02D09942F923F925F
:1050E0004F925F926F927F928F929F92AF92BF92F8
:1050F000CF92DF92EF92FF920F931F93CF93DF93A4
:10510000CDB7DEB7CA1BDB0B0FB6F894DEBF0FBE00
:10511000CDBF09942A88398848885F846E847D844D
:105120008C849B84AA84B984C884DF80EE80FD804F
:105130000C811B81AA81B981CE0FD11D0FB6F894C5
:10514000DEBF0FBECDBFED0108958F929F92AF924B
:10515000BF92CF92DF92EF92FF92CF93DF93EC0159
:10516000688179818A819B8161157105810591052D
:1051700021F464E279ED8BE597E02DE133EF41E036
:1051800050E09AD049015A019B01AC01A7EAB1E471
:10519000AFD06B017C01ACEEB4EFA5019401B4D0AB
:1051A000DC01CB018C0D9D1DAE1DBF1DB7FF03C0E3
:1051B0000197A109B04888839983AA83BB839F770D
:1051C000DF91CF91FF90EF90DF90CF90BF90AF90A5
:1051D0009F908F900895B9CF80E091E0B6CFB0E076
:1051E000A0E08093000190930101A0930201B0938D
:1051F00003010895FB01DC0104C08D910190801929
:1052000021F441505040C8F7881B990B0895681746
:10521000790768F4FB01DC01E40FF51FA40FB51F4B
:1052200002C002900E9241505040D8F7089500C03D
:10523000FB01DC0102C001900D9241505040D8F7B3
:105240000895F999FECF92BD81BDF89A992780B54E
:105250000895A8E1B0E042E050E020C0262FF9997F
:10526000FECF92BD81BDF89A019700B4021639F0C5
:105270001FBA20BD0FB6F894FA9AF99A0FBE089596
:105280000396272FECDFEADF252FE9DF242FE7CF76
:105290000196272FE4DFE2CFDC01CB01FC01F99975
:1052A000FECF06C0F2BDE1BDF89A319600B40D9272
:1052B00041505040B8F70895052E97FB16F400941E
:1052C0000FD057FD05D033D007FC02D046F408C0FC
:1052D00050954095309521953F4F4F4F5F4F089522
:1052E00090958095709561957F4F8F4F9F4F089552
:1052F0000FD0A59F900DB49F900DA49F800D911D80
:1053000011240895B7FFF4CFF3DF821B930B0895A8
:10531000A29FB001B39FC001A39F700D811D1124F6
:10532000911DB29F700D811D1124911D0895A1E260
:105330001A2EAA1BBB1BFD010DC0AA1FBB1FEE1F0F
:10534000FF1FA217B307E407F50720F0A21BB30B5A
:10535000E40BF50B661F771F881F991F1A9469F7D6
:1053600060957095809590959B01AC01BD01CF0132
:105370000895F894FFCF5B0E810E870E810E870E85
:10538000D50EF70E870EF20FFF0F4A118A119011FA
:10539000A8118E124C11D312FC1222139D18191948
:1053A000A51862186618A9186A18AD18B9187618E1
:1053B00012197A18BD187E18C118FA188218C51863
:1053C00001198818CB18DF186E18B1187218B518A3
:1053D0009318D518ED180A1910195C18A11820197E
:0E53E00039183D182E1835184118451849186F
:1053EE000100000000005C440000004148F17644DA
:1053FE00000000415C978A44000000411FD5924492
:10540E000000004152D0A444000000415CFFB844AB
:10541E00000000410AA7CF44000000410000DC4418
:10542E00000000410000DC44000000410AA7CF4408
:10543E00000000415CFFB8440000004152D0A4447B
:10544E00000000411FD59244000000415C978A4441
:10545E000000004148F176440000004100005C4429
:10546E000000004100005C440000004148F1764419
:10547E00000000415C978A44000000411FD5924411
:10548E000000004152D0A444000000415CFFB8442B
:10549E00000000410AA7CF44000000410000DC4498
:1054AE000000004132010000DC4400000041000019
:1054BE005C440000004100005C440000004100001C
:1054CE00DC4400000041D708ED0A000BE608050B8E
:1054DE0052D02445000040415C970A45000000412F
:1054EE0052D0A444000000410000DC440000004102
:1054FE005C970A450000A041000001000AA7CF44B6
:10550E00000000410000DC440000004100000000EB
:10551E000000804000005C4500004041000000009B
:10552E000000804052D02445000040410AA7CF44DD
:10553E00000000410000DC440000004100000000BB
:10554E000000804052D02445000040410000000081
:10555E000000804000005C450000404100005C44BB
:10556E00000080415C978A440000804152D0A444E0
:10557E00000080410000DC44000080410000DC445B
:10558E00000000410AA7CF44000000415CFFB84470
:10559E000000004152D0A444000000411FD59244A7
:1055AE00000000415C978A440000004148F17644B7
:1055BE000000004100005C440000004100005C441B
:1055CE00000080411F1569440000804148F1764477
:1055DE000000804100D08244000080415C978A44E4
:1055EE0000008041A4D024440000804100005C44AF
:1055FE00000080411FD59244000080415CFFC344EF
:10560E000000804100000000000000005CFF4344E9
:10561E00000080411FD59244000080410000DC4410
:10562E000000804152D0244500008041000000005F
:10563E000000000000005C440000804148F1764408
:10564E00000080415C978A44000080411FD592443F
:10565E000000804152D0A444000080410364000049
:10566E00005C440000004100005C4400000041006A
:10567E00005C440000004100005C44000000414812
:10568E00F176440000C04000005C440000C0404879
:10569E00F176440000C04000005C440000C0404869
:1056AE00F176440000C04000005C440000C0404859
:1056BE00F176440000C04000005C440000C0400A87
:1056CE00A7CF44000000410000DC44000000410070
:1056DE000000000000804052D024450000804100B0
:1056EE0000000000000000000000000000000000AC
:1056FE00000000000000000000000000000000009C
:10570E00000000000000000000000000000000008B
:10571E00000000000000000000000000000000007B
:10572E00000000000000000000000000000000006B
:10573E000000000000000000000000000000000A51
:10574E00A7CF44000000410000DC440000004100EF
:10575E000000000000804052D0244500004041006F
:10576E00000000000080400AA74F450000404100A5
:10577E00000000000000000000000000000000001B
:10578E00000000000000000000000000000000000B
:10579E0000000000000000000000000000000000FB
:1057AE0000000000000000000000000000000000EB
:1057BE000000000000000000000000000000000AD1
:1057CE00A7CF44000000410000DC4400000041006F
:1057DE000000000000804052D0244500000041002F
:1057EE00000000000080405CFF38450000004100D2
:1057FE000000000000804052D0244500000041000F
:10580E00000000000000000000000000000000008A
:10581E00000000000000000000000000000000007A
:10582E00000000000000000000000000000000006A
:10583E000000000000000000000000000000005208
:10584E00D02445000000410000DC4400000041521D
:10585E00D0A444000040410002040507090B0C0EC1
:10586E001011131517181A1C1D1F21232426282961
:10587E002B2D2F3032343537393B446D15B0014363
:10588E00012E0106021F0238023149803F5D8B80D6
:10589E003FF8BF803FCAE1803F73ED803FCAE18091
:1058AE003FF8BF803F5D8B803F3149803F000080D5
:1058BE003FF16D7F3F75EA7E3F4C827E3F833F7E98
:1058CE003F84287E3F833F7E3F4C827E3F75EA7E3B
:1058DE003FF16D7F3F0000803F90953536F1F030FF
:1058EE0067F4F5F6F794963497E200E900EA00B50E
:1058FE0000B600B700CD008301CC008A019201945E
:10590E00012102230224022502260227022A02B3C3
:10591E0000B4006F0070009F01CB019F02A002E255
:10592E0000E900EA00B500B600B700CD008301CC57
:10593E00008A0192019401210223022402250226EB
:10594E000227022A02B300B4006F0070009F01CB41
:06595E00019F02A00200FF
:00000001FF
